:020000040800F2
:1000000000040020D70100085D0A000885050008EB
:10001000590A000869040008771100080000000070
:10002000000000000000000000000000C90E0008F1
:100030006D04000800000000D10A00085D0F0008F0
:10004000F7010008F7010008F7010008F7010008B0
:10005000F7010008F7010008F7010008F7010008A0
:10006000F7010008F7010008F7010008F701000890
:10007000F7010008F7010008F7010008F701000880
:10008000F7010008F7010008F7010008F701000870
:10009000F7010008F7010008F7010008F701000860
:1000A000F7010008F7010008F7010008F701000850
:1000B000F7010008F7010008F7010008F701000840
:1000C000F7010008F7010008F7010008F701000830
:1000D000F7010008610F0008F7010008F7010008A8
:1000E000F7010008F7010008F7010008F701000810
:1000F000F7010008F7010008F7010008F701000800
:10010000F7010008F7010008F7010008F7010008EF
:10011000F7010008F7010008F7010008F7010008DF
:10012000F7010008F7010008F7010008F7010008CF
:1001300000F002F800F03FF80AA090E8000C8244BA
:100140008344AAF10107DA4501D100F034F8AFF297
:10015000090EBAE80F0013F0010F18BFFB1A43F0A5
:10016000010318470415000024150000103A24BFAD
:1001700078C878C1FAD8520724BF30C830C144BF0C
:1001800004680C607047000000230024002500264E
:10019000103A28BF78C1FBD8520728BF30C148BFEA
:1001A0000B607047732900F0FB80002070471FB57B
:1001B0001FBD10B510BD00F025F91146FFF7F7FF80
:1001C00001F020F800F043F903B4FFF7F2FF03BC9D
:1001D00000F0D3FF70470B4880470B4981F3088834
:1001E0000A480047FEE7FEE7FEE7FEE7FEE7FEE718
:1001F000FEE7FEE7FEE7FEE705480649044A064B30
:1002000070470000D5010008780300203101000884
:10021000780100207803002078010020704700005A
:100220000FB4044910B503AA029800F0BDF810BC41
:100230005DF814FB000000202DE9F0410E46044655
:10024000002020622046E168884730B3252805D089
:10025000D4E901219047206A401CF2E7E16820467A
:1002600000278847050018D0A5F14100192802D8B9
:1002700020354FF400673246294620462760FFF7B5
:1002800091FF40B1012804D0F61D26F0070608367C
:10029000D8E7361DD6E72846DAE7206ABDE8F081C0
:1002A00070B50C460546012A05D02878800600D591
:1002B000EA69002302E0012305E05B1C934202D2BD
:1002C000E05C0028F9D1A869E618C01AA861286A7C
:1002D000184428622846AFF3008004E0D5E90121E4
:1002E00014F8010B9047B442F8D32846AFF30080CE
:1002F00070BD00004FF0013C50F8042B51F8043B56
:100300009A4221D1A2EB0C03934313EACC1317D1E9
:1003100050F8042B51F8043B9A4215D1A2EB0C0380
:10032000934313EACC130BD150F8042B51F8043B40
:100330009A4209D1A2EB0C03934313EACC13DBD00E
:100340004FF00000704700BFD01A01BAB1FA81F136
:1003500001F0180122FA01F0CB40C1F12001DBB21B
:10036000C0B2C01A2CFA01F3D11A914311EAC31199
:10037000E6D17047704770477047704710B54369C2
:1003800013B1AFF3008001E0FFF78AFF012010BD39
:10039000127800F124010A7000224A700122EDE770
:1003A00011684FF0FF32E9E7074B70B50D467B440B
:1003B00000F011F80446284600F020F810B14FF084
:1003C000FF3070BD204670BD370E000001694A1C29
:1003D00002610878704700B58FB0CDE90131002186
:1003E000059105497944CDE9031011466846FFF7A8
:1003F00023FF0FB000BD0000E5FFFFFF007B00F012
:1004000080007047754600F02BF8AE46050069463F
:10041000534620F00700854618B020B5FFF7ECFEE4
:10042000BDE820404FF000064FF000074FF00008F5
:100430004FF0000B21F00701AC46ACE8C009ACE876
:10044000C009ACE8C009ACE8C0098D46704710B5DA
:100450000446AFF300802046BDE81040FFF7B4BE6D
:10046000004870471401002000BFFEE770472DE9E7
:10047000F04102460025002600200023002400272A
:1004800091F803C00CF00F0591F803C00CF0100CAC
:10049000BCF1000F03D091F802C04CEA050591F8B9
:1004A00000C0BCF1000F31D0146800202BE04FF0E9
:1004B000010C0CFA00F3B1F800C00CEA03069E42EE
:1004C00020D183004FF00F0C0CFA03F7BC4305FA60
:1004D00003FC4CEA040491F803C0BCF1280F06D1D8
:1004E0004FF0010C0CFA00FCC2F814C00AE091F8BD
:1004F00003C0BCF1480F05D14FF0010C0CFA00FC11
:10050000C2F810C0401C0828D1D31460B1F800C054
:10051000BCF1FF0F34DD546800202EE000F1080C20
:100520004FF0010808FA0CF3B1F800C00CEA03061A
:100530009E4221D183004FF00F0C0CFA03F7BC430D
:1005400005FA03FC4CEA040491F803C0BCF1280F3F
:1005500005D100F1080C08FA0CF8C2F8148091F8E3
:1005600003C0BCF1480F07D100F1080C4FF001089F
:1005700008FA0CF8C2F81080401C0828CED354604A
:10058000BDE8F08100BFFEE701464906084A9269CE
:1005900042F00102064B9A61064A526822F0E0627C
:1005A000044B5A601A4652680A435A60704700006A
:1005B000001002400000014070B501251CE001243C
:1005C00010E0AC4206D1FF231A461946204600F03F
:1005D000DDF905E000231A461946204600F0D6F959
:1005E000601CC4B2072CECDB062000F065F9642027
:1005F00000F0DCFD681CC5B2072DE0DB06251CE021
:10060000062410E0AC4206D1FF231A4619462046C4
:1006100000F0BCF905E000231A461946204600F018
:10062000B5F9601EC4B2012CECDA062000F044F9E2
:10063000642000F0BBFD681EC5B2012DE0DA012583
:1006400082E0012470E0012D10D1062C01D0012C94
:1006500006D1FF23F8221146204600F097F905E065
:1006600000231A461946204600F090F9022D14D1B5
:10067000052C05D0022C03D0062C01D0012C06D16C
:10068000FF23F8221146204600F080F905E0002300
:100690001A461946204600F079F9032D18D1032C8B
:1006A00009D0042C07D0052C05D0022C03D0062C31
:1006B00001D0012C06D1FF23F8221146204600F07C
:1006C00065F905E000231A461946204600F05EF958
:1006D000042D14D1052C05D0022C03D0062C01D0FA
:1006E000012C06D1FF23F8221146204600F04EF9D6
:1006F00005E000231A461946204600F047F9052D6B
:1007000010D1062C01D0012C06D1FF23F82211466E
:10071000204600F03BF905E000231A461946204622
:1007200000F034F9601CC4B2072C8CDB062000F00A
:10073000C3F8032D03D1C82000F038FD02E0642087
:1007400000F034FD681CC5B2062DFFF67AAF3220EA
:1007500000F02CFD70BD000001202949086000BF99
:1007600000BF00BF00BF00BF00BF00BF00BF00BF91
:1007700000BF00BF00BF00BF00BF00BF00BF00BF81
:1007800000BF00BF00BF00201E49C1F8B40100BF78
:1007900000BF00BF00BF00BF00BF00BF00BF00BF61
:1007A00000BF00BF00BF00BF00BF00BF00BF00BF51
:1007B00000BF00BF00BF00BF00BF00BF00BF00BF41
:1007C00000BF00BF00BF00BF00BF00BF00BF00BF31
:1007D00000BF00BF00BF00BF00BF00BF00BF00BF21
:1007E00000BF00BF00BF00BF00BF00BF00BF00BF11
:1007F00000BF00BF00BF00BF00BF00BF70470000C8
:10080000B40122420000224201202949086000BFB1
:1008100000BF00BF00BF00BF00BF00BF00BF00BFE0
:1008200000BF00BF00BF00BF00BF00BF00BF00BFD0
:1008300000BF00BF00BF00BF00BF00BF00BF00BFC0
:1008400000BF00BF00BF00BF00BF00BF00BF00BFB0
:1008500000BF00BF00BF00BF00BF00BF00BF00BFA0
:1008600000BF00BF00BF00BF00BF00BF00BF00BF90
:1008700000BF00BF00BF00BF00BF00BF00200D4988
:10088000C1F8B40100BF00BF00BF00BF00BF00BF80
:1008900000BF00BF00BF00BF00BF00BF00BF00BF60
:1008A00000BF00BF00BF00BF00BF00BF7047000017
:1008B000B40122420000224270B50546002451E0F6
:1008C0002C48005D00F0800010B9FFF745FF01E003
:1008D000FFF79AFF2748005D00F0400010B9FFF7CE
:1008E0003BFF01E0FFF790FF2248005D00F0200091
:1008F00010B9FFF731FF01E0FFF786FF1D48005DEB
:1009000000F0100010B9FFF727FF01E0FFF77CFFB0
:100910001848005D00F0080010B9FFF71DFF01E066
:10092000FFF772FF1348005D00F0040010B9FFF7F5
:1009300013FF01E0FFF768FF0E48005D00F00200C2
:1009400010B9FFF709FF01E0FFF75EFF0948005DFE
:1009500000F0010010B9FFF7FFFE01E0FFF754FFC0
:10096000601CC4B205EB4500A042A9DC00F004F80D
:1009700070BD0000E400002010B5002002490860AE
:10098000422000F022FC10BDB401224230B5441ECA
:1009900004EB4404064D2A55441E04EB4404641C35
:1009A0002955441E04EB4404A41C2B5530BD000003
:1009B000E400002000B5002015490861C86014203B
:1009C000486100208861C8610846006840F0010065
:1009D0000860084640680F4908400D4948600846CD
:1009E00000680D4908400A4908600846006820F47C
:1009F000802008600846406820F4FE00486000201F
:100A0000886000214FF0006000F01CF800BD00007D
:100A1000001002400000FFF8FFFFF6FE014607232A
:100A200023EA01021202054B18684FF6FF03184033
:100A3000034B18431043014B186070470CED00E066
:100A40000000FA05024A0A400243024B1A6070474E
:100A500080FFFF1F08ED00E000BFFEE770470000C9
:100A600070B5002100230F22C47804B3154C24680C
:100A700004F4E064C4F5E064210AC1F10403CA404F
:100A8000447804FA03F184781440214309010E4CA0
:100A90000678A155047804F01F050124AC400578C0
:100AA0006D11AD0005F1E025C5F8004109E00478BD
:100AB00004F01F050124AC40044D0678761145F87A
:100AC000264070BD0CED00E000E400E080E100E0B5
:100AD0007047000029B1064A92690243044B9A61AB
:100AE00004E0034A92698243014B9A617047000017
:100AF0000010024030B500210022002400232D4DBB
:100B00006D6805F00C0121B1042905D0082923D115
:100B100005E0294D056022E0274D05601FE0254DC9
:100B20006D6805F47012234D6D6805F4803402255C
:100B300005EB92421CB9214D554305600BE01D4D5C
:100B40006D6805F400351DB11C4D5543056002E08C
:100B5000194D5543056002E0174D056000BF00BF09
:100B6000144D6D6805F0F0010909154D6B5C0568C1
:100B7000DD4045600F4D6D6805F4E061090A104DD8
:100B80006B5C4568DD4085600A4D6D6805F4605119
:100B9000C90A0B4D6B5C4568DD40C560054D6D684D
:100BA00005F44041890B074D6B5CC568B5FBF3F557
:100BB000056130BD0010024000127A0000093D00BE
:100BC000060000201600002010B500231A46194622
:100BD000012000F065F900231A461946022000F0B2
:100BE0005FF900231A461946032000F059F9002343
:100BF0001A461946042000F053F900231A461946F4
:100C0000052000F04DF900231A461946062000F091
:100C100047F9062000F0DAF810BD10B500231A4697
:100C2000FF21012000F03CF9F5231A461946022065
:100C300000F036F9F5231A461946032000F030F982
:100C4000F5231A461946042000F02AF9F5231A461E
:100C50001946052000F024F900231A46FF2106203A
:100C600000F01EF9062000F0B1F810BD012029495E
:100C7000086000BF00BF00BF00BF00BF00BF00BFD3
:100C800000BF00BF00BF00BF00BF00BF00BF00BF6C
:100C900000BF00BF00BF00BF00BF00201E49C1F859
:100CA000B80100BF00BF00BF00BF00BF00BF00BF52
:100CB00000BF00BF00BF00BF00BF00BF00BF00BF3C
:100CC00000BF00BF00BF00BF00BF00BF00BF00BF2C
:100CD00000BF00BF00BF00BF00BF00BF00BF00BF1C
:100CE00000BF00BF00BF00BF00BF00BF00BF00BF0C
:100CF00000BF00BF00BF00BF00BF00BF00BF00BFFC
:100D000000BF00BF00BF00BF00BF00BF00BF00BFEB
:100D100070470000B8012242000022420120294908
:100D2000086000BF00BF00BF00BF00BF00BF00BF22
:100D300000BF00BF00BF00BF00BF00BF00BF00BFBB
:100D400000BF00BF00BF00BF00BF00BF00BF00BFAB
:100D500000BF00BF00BF00BF00BF00BF00BF00BF9B
:100D600000BF00BF00BF00BF00BF00BF00BF00BF8B
:100D700000BF00BF00BF00BF00BF00BF00BF00BF7B
:100D800000BF00BF00BF00BF00BF00BF00BF00BF6B
:100D900000200D49C1F8B80100BF00BF00BF00BF6F
:100DA00000BF00BF00BF00BF00BF00BF00BF00BF4B
:100DB00000BF00BF00BF00BF00BF00BF00BF00BF3B
:100DC00070470000B80122420000224270B505467B
:100DD000002451E02C48005D00F0800010B9FFF7BE
:100DE00045FF01E0FFF79AFF2748005D00F0400053
:100DF00010B9FFF73BFF01E0FFF790FF2248005DCD
:100E000000F0200010B9FFF731FF01E0FFF786FF87
:100E10001D48005D00F0100010B9FFF727FF01E04A
:100E2000FFF77CFF1848005D00F0080010B9FFF7DD
:100E30001DFF01E0FFF772FF1348005D00F00400A2
:100E400010B9FFF713FF01E0FFF768FF0E48005DE0
:100E500000F0020010B9FFF709FF01E0FFF75EFFA5
:100E60000948005D00F0010010B9FFF7FFFE01E046
:100E7000FFF754FF601CC4B205EB4500A042A9DC9B
:100E800000F004F870BD0000FC00002010B5002048
:100E900002490860422000F098F910BDB8012242D2
:100EA00030B5441E04EB4404064D2A55441E04EBA1
:100EB0004404641C2955441E04EB4404A41C2B5513
:100EC00030BD0000FC0000207047000030B5044633
:100ED0000025FFF76FFD1F48006840F480301D4972
:100EE000086000BF1B480068400C0028FAD04FF48F
:100EF000806018494860A01EC4B20846406840EAB5
:100F0000844048600846406840F480304860124899
:100F1000006840F03200104908600E48006840F058
:100F200080700C49086000BF0A480068400E002825
:100F3000FAD00848406840F002000649486005E0E1
:100F400004484068C0F3870505F00305022DF7D17A
:100F500030BD000000100240002002407047000039
:100F600010B540F22551154800F045F828B3134854
:100F700000F0FCF8C4B212480078032816DA1148D1
:100F80000F49097844540E480078401C0C490870F9
:100F90000846007803280CD100200A49C8700120B7
:100FA0000949087000200649087002E00020044941
:100FB00008702021014800F009F810BD00380140F8
:100FC000050000201C0000200400002001F4007235
:100FD000B2F5007F00D100BFCA430280704721B143
:100FE000828942F40052828104E082894DF6FF73C7
:100FF0001A408281704770B5024600240023002504
:10100000002040F66A16B14200D100BFC1F342157C
:1010100001F01F03012606FA03F3012D02D1968980
:10102000334006E0022D02D1168A334001E0968A51
:1010300033400C12012606FA04F41688344013B12A
:101040000CB1012000E0002070BDF0B50346002483
:1010500000260025002040F66A17B94200D100BFE3
:101060001846C1F3421401F01F06012707FA06F5DE
:10107000012C01D10C3004E0022C01D1103000E031
:1010800014301AB107682F43076002E00768AF43C6
:101090000760F0BD2DE9F04786B005460E460024F6
:1010A000A24600BFA1460027B08900B100BF2F466D
:1010B0002C8A4CF6FF700440F08804432C82AC89E3
:1010C0004EF6F3100440B088318908437189084313
:1010D0000443AC81AC8A4FF6FF400440B08904431E
:1010E000AC8201A8FFF706FD1F48874202D1DDF858
:1010F00010A001E0DDF80CA0A88900F4004040B188
:101100000AEBCA0000EB0A1031684900B0FBF1F8A5
:1011100007E00AEBCA0000EB0A1031688900B0FB57
:10112000F1F86420B8FBF0F004012009642101FB10
:101130001089A88900F4004040B1322000EBC900BA
:10114000B0FBF1F000F00700044308E0322000EBB0
:1011500009106421B0FBF1F000F00F0004432C8172
:1011600006B0BDE8F08700000038014001468888DD
:10117000C0F30800704700BFFEE7014600BF70479C
:1011800008B501211020FFF7A5FC4FF4C040ADF8D1
:10119000000010208DF8030003208DF8020069463E
:1011A0000148FFF764F908BD0010014007E041F66F
:1011B0004B4100BF0A1EA1F1010399B2FAD1021EF0
:1011C000A0F1010398B2F2D1704706E0082100BFF8
:1011D0000A1EA1F1010399B2FAD1021EA0F1010386
:1011E00098B2F3D17047000000BF054A128802F0A0
:1011F0004002002AF9D0C2B2014B1B1D1A80704771
:10120000003801400920FFF761FE0220FFF706FCCD
:101210004FF4E13000F0D8F90220FFF7B5F90120D2
:10122000FFF7B2F9FFF7ACFFC2A0FEF7F9FF80E1CC
:10123000C248007801287DD1C1A1C248FFF75AF801
:1012400050BB00231A4619460120FFF79FFB0023DD
:101250001A4619460220FFF799FB00231A46194641
:101260000320FFF793FB00231A4619460420FFF7DB
:101270008DFB00231A4619460520FFF787FB002344
:101280001A4619460620FFF781FB0620FFF714FBDC
:10129000ADA0FEF7C5FF46E1ADA1AA48FFF72AF8C9
:1012A00028B9FFF789F9ABA0FEF7BAFF3BE1ABA184
:1012B000A448FFF71FF850BBFF231A461946012028
:1012C000FFF764FBFF231A4619460220FFF75EFB77
:1012D000FF231A4619460320FFF758FBFF231A463F
:1012E00019460420FFF752FBFF231A461946052032
:1012F000FFF74CFBFF231A4619460620FFF746FB73
:101300000620FFF7D9FA96A0FEF78AFF0BE196A117
:101310008C48FEF7EFFF60BB00231A46FF21012037
:10132000FFF734FB00231A46FF210220FFF72EFBB4
:10133000002300E0FAE01A46FF210320FFF726FB16
:1013400000231A46FF210420FFF720FB00231A4642
:10135000FF210520FFF71AFB00231A46FF21062074
:10136000FFF714FB0620FFF7A7FA80A0FEF758FF4F
:10137000D9E080A17348FEF7BDFF50BB0023FF22D8
:1013800019460120FFF702FB0023FF221946022025
:10139000FFF7FCFA0023FF2219460320FFF7F6FAB5
:1013A0000023FF2219460420FFF7F0FA0023FF2252
:1013B00019460520FFF7EAFA0023FF221946062006
:1013C000FFF7E4FA0620FFF777FA6BA0FEF728FF95
:1013D000A9E06BA15B48FEF78DFF50BBFF23002205
:1013E00011460120FFF7D2FAFF2300221146022006
:1013F000FFF7CCFAFF23002211460320FFF7C6FABD
:10140000FF23002211460420FFF7C0FAFF23002229
:1014100011460520FFF7BAFAFF23002211460620E5
:10142000FFF7B4FA0620FFF747FA56A0FEF7F8FEDA
:1014300079E056A14348FEF75DFF28B9FFF7C4FBEA
:1014400053A0FEF7EDFE6EE053A13E48FEF752FFBB
:1014500028B9FFF7E2FB51A0FEF7E2FE63E051A1DD
:101460003848FEF747FF50BB00231A46FF210120F2
:10147000FFF716FD00231A46FF210220FFF710FD9B
:1014800000231A46FF210320FFF70AFD00231A4616
:10149000FF210420FFF704FD00231A46FF21052049
:1014A000FFF7FEFC00231A46FF210620FFF7F8FC99
:1014B0000620FFF78BFC3CA0FEF7B2FE33E03CA118
:1014C0002048FEF717FF50BBFF231A46194601209C
:1014D000FFF7E6FCFF231A4619460220FFF7E0FC5F
:1014E000FF231A4619460320FFF7DAFCFF231A46AA
:1014F00019460420FFF7D4FCFF231A46194605209D
:10150000FFF7CEFCFF231A4619460620FFF7C8FC5A
:101510000620FFF75BFC27A0FEF782FE03E00949E7
:1015200026A0FEF77DFE0020044908700A20FFF780
:101530003DFE7DE652454144590D0A00040000205D
:101540004C3A30001C0000204C3A300D0A000000DC
:101550004C3A31004C3A310D0A0000004C3A32004E
:101560004C3A320D0A0000004C3A33004C3A330D2D
:101570000A0000004C3A34004C3A340D0A000000D6
:101580004C3A35004C3A350D0A000000523A300012
:10159000523A300D0A000000523A3100523A310DF1
:1015A0000A000000523A3200523A320D0A0000009E
:1015B000523A3300523A330D0A0000004552524F5E
:1015C000523A2025730D0A0010B586B00446012159
:1015D00044F20400FFF77EFA4FF40070ADF81400F7
:1015E00003208DF8160018208DF8170005A91C4857
:1015F000FEF73DFF4FF48060ADF8140004208DF835
:10160000170005A91648FEF732FF25208DF80000C7
:1016100003208DF801008DF8020001208DF80300F1
:101620006846FFF71DFA01940020ADF80800ADF8F8
:101630000A00ADF80C00ADF810000C20ADF80E005B
:1016400001A90848FFF726FD012240F2255105486F
:10165000FFF7FBFC01210348FFF7C1FC06B010BDFA
:1016600000080140003801408816000800000020F2
:101670001C0000006C010008A41600081C000020DB
:101680005C0300008801000800000000000000006A
:101690000000010203040102030406070809020412
:0416A0000608000038
:04000005080001D717
:00000001FF
