:020000040800F2
:1000000000040020CF010008210500084504000875
:100010001D05000821030008070D0008000000006E
:100020000000000000000000000000007107000850
:10003000250300080000000059060008B108000868
:10004000EF010008EF010008EF010008EF010008D0
:10005000EF010008EF010008EF010008EF010008C0
:10006000EF010008EF010008EF010008EF010008B0
:10007000EF010008EF010008EF010008EF010008A0
:10008000EF010008EF010008EF010008EF01000890
:10009000EF010008EF010008EF010008EF01000880
:1000A000EF010008EF010008EF010008EF01000870
:1000B000EF010008EF010008EF010008EF01000860
:1000C000EF010008EF010008EF010008EF01000850
:1000D000EF010008F50A0008EF010008EF01000831
:1000E000EF010008EF010008EF010008EF01000830
:1000F000EF010008EF010008EF010008EF01000820
:10010000EF010008EF010008EF010008EF0100080F
:10011000EF010008EF010008EF010008EF010008FF
:10012000EF010008EF010008EF010008EF010008EF
:1001300000F002F800F03AF80AA090E8000C8244BF
:100140008344AAF10107DA4501D100F02FF8AFF29C
:10015000090EBAE80F0013F0010F18BFFB1A43F0A5
:1001600001031847300D0000500D0000103A24BF65
:1001700078C878C1FAD8520724BF30C830C144BF0C
:1001800004680C607047000000230024002500264E
:10019000103A28BF78C1FBD8520728BF30C148BFEA
:1001A0000B6070471FB51FBD10B510BD00F072F891
:1001B0001146FFF7F7FF00F0DFFD00F0A4F803B4ED
:1001C000FFF7F2FF03BC00F0A0FD000070470B48F2
:1001D00080470B4981F308880A480047FEE7FEE79D
:1001E000FEE7FEE7FEE7FEE7FEE7FEE7FEE7FEE7E7
:1001F00005480649044A064B70470000CD01000837
:100200004803002031010008480100204803002075
:1002100048010020704700000FB4044910B503AA3C
:10022000029800F009F810BC5DF814FB00000020F3
:100230007047704770477047074B70B50D467B4459
:1002400000F011F80446284600F020F810B14FF0F5
:10025000FF3070BD204670BD1B0B000001694A1CB9
:1002600002610878704700B58FB0CDE901310021F7
:10027000059105497944CDE903101146684600F01F
:100280002EF80FB000BD0000E5FFFFFF007B00F07F
:1002900080007047754600F03FF8AE46050069469D
:1002A000534620F00700854618B020B5FFF7A0FFA1
:1002B000BDE820404FF000064FF000074FF0000867
:1002C0004FF0000B21F00701AC46ACE8C009ACE8E8
:1002D000C009ACE8C009ACE8C0098D4670472DE9FB
:1002E000F04106460024D6E90170F56880463046A4
:1002F00003E04146B847641C3046A8470028F8D1BF
:100300002046BDE8F08110B50446AFF300802046DA
:10031000BDE81040FFF753BF00487047E4000020DD
:1003200000BFFEE770472DE9F04102460025002698
:10033000002000230024002791F803C00CF00F05D3
:1003400091F803C00CF0100CBCF1000F03D091F831
:1003500002C04CEA050591F800C0BCF1000F31D095
:10036000146800202BE04FF0010C0CFA00F3B1F8F8
:1003700000C00CEA03069E4220D183004FF00F0C10
:100380000CFA03F7BC4305FA03FC4CEA040491F8A9
:1003900003C0BCF1280F06D14FF0010C0CFA00FC91
:1003A000C2F814C00AE091F803C0BCF1480F05D1AF
:1003B0004FF0010C0CFA00FCC2F810C0401C0828D9
:1003C000D1D31460B1F800C0BCF1FF0F34DD546824
:1003D00000202EE000F1080C4FF0010808FA0CF3A1
:1003E000B1F800C00CEA03069E4221D183004FF011
:1003F0000F0C0CFA03F7BC4305FA03FC4CEA0404A7
:1004000091F803C0BCF1280F05D100F1080C08FADF
:100410000CF8C2F8148091F803C0BCF1480F07D162
:1004200000F1080C4FF0010808FA0CF8C2F810802F
:10043000401C0828CED35460BDE8F081416170476C
:100440000161704700BFFEE701464906084A92690C
:1004500042F00102064B9A61064A526822F0E062BD
:10046000044B5A601A4652680A435A6070470000AB
:10047000001002400000014000B50020154908614D
:10048000C8601420486100208861C861084600687F
:1004900040F001000860084640680F4908400D49D7
:1004A0004860084600680D4908400A490860084647
:1004B000006820F4802008600846406820F4FE00B0
:1004C00048600020886000214FF0006000F01CF8B8
:1004D00000BD0000001002400000FFF8FFFFF6FE24
:1004E0000146072323EA01021202054B18684FF662
:1004F000FF031840034B18431043014B186070472B
:100500000CED00E00000FA05024A0A400243024BEB
:100510001A60704780FFFF1F08ED00E000BFFEE794
:100520007047000070B5002100230F22C47804B387
:10053000154C246804F4E064C4F5E064210AC1F1B8
:100540000403CA40447804FA03F184781440214338
:1005500009010E4C0678A155047804F01F0501240A
:10056000AC4005786D11AD0005F1E025C5F80041FE
:1005700009E0047804F01F050124AC40044D06781E
:10058000761145F8264070BD0CED00E000E400E077
:1005900080E100E030B589B005460C460121082015
:1005A00000F06CF84FF4C040ADF8200010208DF83A
:1005B000230003208DF8220008A92548FFF7B3FE89
:1005C0004FF4C0412248FFF739FF0121042000F019
:1005D00045F8C020ADF8200018208DF82300032036
:1005E0008DF8220008A91A48FFF79DFEADF81850B3
:1005F000ADF814400020ADF81A00ADF8160005A9BA
:10060000144800F025FA6020ADF804000120ADF890
:1006100006000020ADF80A00ADF80C0001A90D4855
:1006200000F060F901A90B4800F0B2F9082109486F
:1006300000F0A4F90821074800F0FCF90121054861
:1006400000F037F90121034800F03FF909B030BD4F
:10065000000C0140000800407047000029B1064A24
:10066000D2690243044BDA6104E0034AD26982434F
:10067000014BDA61704700000010024029B1064AC0
:1006800092690243044B9A6104E0034A92698243EF
:10069000014B9A61704700000010024030B5002104
:1006A0000022002400232D4D6D6805F00C0121B1BE
:1006B000042905D0082923D105E0294D056022E051
:1006C000274D05601FE0254D6D6805F47012234D20
:1006D0006D6805F48034022505EB92421CB9214D6A
:1006E000554305600BE01D4D6D6805F400351DB1E7
:1006F0001C4D5543056002E0194D5543056002E06D
:10070000174D056000BF00BF144D6D6805F0F00186
:100710000909154D6B5C0568DD4045600F4D6D683E
:1007200005F4E061090A104D6B5C4568DD408560A9
:100730000A4D6D6805F46051C90A0B4D6B5C456844
:10074000DD40C560054D6D6805F44041890B074DDE
:100750006B5CC568B5FBF3F5056130BD0010024068
:1007600000127A0000093D0006000020160000205B
:100770007047000070B505460C46002D0ADD4FF4A9
:1007800000512548FFF75AFE284600F02BFB23496D
:10079000088017E04DB94FF400511F48FFF750FE95
:1007A00041F61F401D4908800CE04FF400511A48E3
:1007B000FFF746FE284600F015FB41F61F41081AD8
:1007C00016490880002C0BDD4FF480411248FFF7DA
:1007D00035FE204600F006FB1049091D088019E08F
:1007E00054B94FF480410C48FFF72AFE41F61F40F0
:1007F0000A49091D08800DE04FF480410648FFF7C3
:100800001FFE204600F0EEFA41F61F41081A034988
:10081000091D088070BD0000000C01403408004034
:1008200030B504460025FFF727FE1F48006840F456
:1008300080301D49086000BF1B480068400C00283C
:10084000FAD04FF4806018494860A01EC4B2084630
:10085000406840EA844048600846406840F4803080
:1008600048601248006840F03200104908600E48A5
:10087000006840F080700C49086000BF0A480068BA
:10088000400E0028FAD00848406840F002000649AF
:10089000486005E004484068C0F3870505F003059B
:1008A000022DF7D130BD00000010024000200240B0
:1008B000704721B1028842F08002028004E0028881
:1008C0004FF67F731A400280704721B1028842F0D0
:1008D0000102028004E002884FF6FE731A40028093
:1008E0007047000070B5002400220023058C4FF6ED
:1008F000FE7635400584028C8388048B4FF68F7515
:100900002C40B51E2C400D882C43751E2A400D89A5
:100910002A434D882A43144DA8420BD0134DA842B8
:1009200008D0134DA84205D0124DA84202D0124D56
:10093000A84213D14FF6F7752A404D892A434FF646
:10094000FB752A408D882A434FF6FF652B404FF6F2
:10095000FF552B408D892B43CD892B438380048306
:10096000CD888586028470BD002C01400034014092
:100970000040014000440140004801400A46002177
:10098000018B4FF6F7731940114301837047000044
:1009900070B5002400220023058C4FF6EF76354019
:1009A0000584028C8388048B48F6FF752C404FF633
:1009B000FF452C400D884FF6FF7606EA05252C43AF
:1009C0004FF6DF752A400D8906EA05152A434D8842
:1009D00006EA05152A43154DA84202D0144DA84237
:1009E0001DD14FF67F752A404D894FF6FF7606EAF6
:1009F00005152A434FF6BF752A408D8806EA05156E
:100A00002A434FF6FF352B404FF2FF752B408D895F
:100A100006EA85052B43CD8906EA85052B438380AD
:100A20000483CD880587028470BD0000002C01403E
:100A3000003401400A460021018B4FF2FF73194038
:100A40004FF6FF7303EA0223194301837047000046
:100A5000002202881D4B98420ED01D4B98420BD0AD
:100A6000B0F1804F08D01B4B984205D01A4B9842EA
:100A700002D01A4B984204D14FF68F731A404B881C
:100A80001A43174B984207D0164B984204D04FF6A2
:100A9000FF431A40CB881A4302808B8883850B88DA
:100AA00003850A4B98420BD0094B984208D00E4B55
:100AB000984205D00D4B984202D00D4B984201D17F
:100AC0000B7A03860123838270470000002C0140CB
:100AD000003401400004004000080040000C0040C9
:100AE000001000400014004000400140004401405C
:100AF0000048014010B540F22551144800F043F879
:100B0000F0B1124800F0FAF8C4B21148114909785E
:100B100044540078482805D10E480078401C0D49FF
:100B2000087002E000200B4908700A480078052888
:100B300006D1074800794F2802D1012006490870E4
:100B40002021024800F00AF810BD000000380140E2
:100B50001C000020050000200400002001F40072A9
:100B6000B2F5007F00D100BFCA430280704721B1B7
:100B7000828942F40052828104E082894DF6FF733B
:100B80001A408281704770B5024600240023002578
:100B9000002040F66A16B14200D100BFC1F34215F1
:100BA00001F01F03012606FA03F3012D02D19689F5
:100BB000334006E0022D02D1168A334001E0968AC6
:100BC00033400C12012606FA04F41688344013B19F
:100BD0000CB1012000E0002070BDF0B503460024F8
:100BE00000260025002040F66A17B94200D100BF58
:100BF0001846C1F3421401F01F06012707FA06F553
:100C0000012C01D10C3004E0022C01D1103000E0A5
:100C100014301AB107682F43076002E00768AF433A
:100C20000760F0BD2DE9F04786B005460E4600246A
:100C3000A24600BFA1460027B08900B100BF2F46E1
:100C40002C8A4CF6FF700440F08804432C82AC8957
:100C50004EF6F3100440B088318908437189084387
:100C60000443AC81AC8A4FF6FF400440B089044392
:100C7000AC8201A8FFF712FD1F48874202D1DDF8C0
:100C800010A001E0DDF80CA0A88900F4004040B1FC
:100C90000AEBCA0000EB0A1031684900B0FBF1F81A
:100CA00007E00AEBCA0000EB0A1031688900B0FBCC
:100CB000F1F86420B8FBF0F004012009642101FB85
:100CC0001089A88900F4004040B1322000EBC9002F
:100CD000B0FBF1F000F00700044308E0322000EB25
:100CE00009106421B0FBF1F000F00F0004432C81E7
:100CF00006B0BDE8F0870000003801400146888852
:100D0000C0F30800704700BFFEE7014600BF704710
:100D100008B501211020FFF7B1FC4FF4C040ADF839
:100D2000000010208DF8030003208DF802006946B2
:100D30000148FFF7F8FA08BD0010014007E041F64E
:100D40004B4100BF0A1EA1F1010399B2FAD1021E64
:100D5000A0F1010398B2F2D17047000000BF054A2C
:100D6000128802F04002002AF9D0C2B2014B1B1DCA
:100D70001A807047003801401448406A40F0807083
:100D8000124948620920FFF74BFD0220FFF7A8FB3C
:100D90004FF4E13000F02EF80220FFF755FB012060
:100DA000FFF752FBFFF7B4FF092141F61F40FFF7A1
:100DB000F1FB07A0FFF730FA07E040F6C411084640
:100DC000FFF7D8FC6420FFF7B9FFF6E700100240F8
:100DD000515354EFBFBDEFBFBDEFBFBDEFBFBD0D62
:100DE0000A0000000146002901DA484200E00846F6
:100DF0007047000010B586B00446012144F204009B
:100E0000FFF73CFC4FF40070ADF8140003208DF8A0
:100E1000160018208DF8170005A91C48FFF783FA63
:100E20004FF48060ADF8140004208DF8170005A978
:100E30001648FFF778FA25208DF8000003208DF87A
:100E400001008DF8020001208DF803006846FFF7CD
:100E500069FB01940020ADF80800ADF80A00ADF878
:100E60000C00ADF810000C20ADF80E0001A90848E8
:100E7000FFF7D8FE012240F225510548FFF7ADFEED
:100E800001210348FFF773FE06B010BD00080140C2
:100E900000380140B40E0008000000201C000000D3
:100EA0006C010008D00E00081C0000202C0300007C
:100EB000880100080000000000000000000001029E
:100EC00003040102030406070809020406080000DF
:04000005080001CF1F
:00000001FF
