:020000040800F2
:1000000000040020D7010008690C0008FB07000865
:10001000250C0008950400089F1C00080000000043
:10002000000000000000000000000000491200086D
:10003000B505000800000000890D00084D130008F8
:10004000F7010008F7010008F7010008F7010008B0
:10005000F7010008F7010008F7010008F7010008A0
:10006000F7010008F7010008F7010008F701000890
:10007000F7010008F7010008F7010008F701000880
:10008000F7010008F7010008F7010008F701000870
:10009000F7010008F7010008F7010008F701000860
:1000A000F7010008F7010008F7010008F701000850
:1000B000F7010008F7010008F7010008F701000840
:1000C000F7010008F7010008F7010008F701000830
:1000D000F7010008691A0008F7010008F701000895
:1000E000F7010008F7010008F7010008F701000810
:1000F000F7010008F7010008F7010008F701000800
:10010000F7010008F7010008F7010008F7010008EF
:10011000F7010008F7010008F7010008F7010008DF
:10012000F7010008F7010008F7010008F7010008CF
:1001300000F002F800F03FF80AA090E8000C8244BA
:100140008344AAF10107DA4501D100F034F8AFF297
:10015000090EBAE80F0013F0010F18BFFB1A43F0A5
:10016000010318472427000044270000103A24BF49
:1001700078C878C1FAD8520724BF30C830C144BF0C
:1001800004680C607047000000230024002500264E
:10019000103A28BF78C1FBD8520728BF30C148BFEA
:1001A0000B607047642900F07B80002070471FB50A
:1001B0001FBD10B510BD00F03BF91146FFF7F7FF6A
:1001C00001F0B4FD00F059F903B4FFF7F2FF03BCEE
:1001D00001F067FD70470B4880470B4981F30888A1
:1001E0000A480047FEE7FEE7FEE7FEE7FEE7FEE718
:1001F000FEE7FEE7FEE7FEE705480649044A064B30
:1002000070470000D50100081003002031010008EC
:100210001001002010030020100100207047000092
:100220000FB4044910B503AA029800F0D3F810BC2B
:100230005DF814FB000000202DE9F0410E46044655
:10024000002020622046E168884730B3252805D089
:10025000D4E901219047206A401CF2E7E16820467A
:1002600000278847050018D0A5F14100192802D8B9
:1002700020354FF400673246294620462760FFF7B5
:1002800091FF40B1012804D0F61D26F0070608367C
:10029000D8E7361DD6E72846DAE7206ABDE8F081C0
:1002A0002DE9F0410646002410687529314616A54F
:1002B00010D0AFF30080002802DA404213A507E017
:1002C00031688A0701D512A502E0490704D511A5B6
:1002D000012401E0AFF3008000210A2206F1240787
:1002E00009E0B0FBF2FCB0FBF2F302FB1C00303083
:1002F00078541846491C0028F3D123462A46304634
:10030000BDE8F04100F00CB8000000002D00000036
:100310002B000000200000007047704770477047B6
:100320002DE9F0470D4699469246044600F124080F
:100330000168880604D5E06921F01001216000E021
:100340000120A84201DD471B00E00027A1697A19BE
:1003500002EB0900081AA0612078C00602D42046EA
:10036000AFF30080002608E0D4E901211AF8060066
:100370009047206A401C761C20624E45F4DB2078B2
:10038000C0060AD52046AFF3008006E0D4E901217B
:1003900030209047206A401C2062381EA7F10107D8
:1003A000F4DC07E0D4E9012118F805009047206A41
:1003B000401C2062281EA5F10105F3DC2046AFF3A6
:1003C00000802078000602D50220BDE8F0870120D9
:1003D000FBE70000074B70B50D467B4400F011F8B9
:1003E0000446284600F020F810B14FF0FF3070BDF1
:1003F000204670BD3319000001694A1C026108786B
:10040000704700B58FB0CDE9013100210591054954
:100410007944CDE9031011466846FFF70DFF0FB090
:1004200000BD0000E5FFFFFF007B00F0800070478B
:10043000754600F02BF8AE4605006946534620F09D
:100440000700854618B020B5FFF7D6FEBDE820406E
:100450004FF000064FF000074FF000084FF0000B80
:1004600021F00701AC46ACE8C009ACE8C009ACE833
:10047000C009ACE8C0098D46704710B50446AFF31B
:1004800000802046BDE81040FFF79EBE0048704740
:10049000B000002000BFFEE72DE9F04105460C4604
:1004A00000260027022000F07BFE20490860032080
:1004B00000F076FE1E4908601C4801681DA0FFF789
:1004C000AFFE1B48016820A0FFF7AAFE284600F0F7
:1004D0009DFE0646204600F099FE074631461FA0C5
:1004E000FFF79EFE394622A0FFF79AFE31460F48DD
:1004F000006800F085F92349086039460C48006817
:1005000000F052FA204908601E4801681FA0FFF75A
:1005100087FE1D48016822A0FFF782FE1A48016885
:100520001848006800F092FEBDE8F0812C00002021
:10053000300000206C6566742020636F6465722053
:100540003A2025640D0A0000726967687420636FA1
:10055000646572203A2025640D0A000054616765C5
:10056000412020636F646572203A2025640D0A00E3
:1005700054616765422020636F646572203A2025CC
:10058000640D0A0034000020380000204D6F746FA5
:10059000725F41202070776D203A2025640D0A009B
:1005A0004D6F746F725F42202070776D203A202566
:1005B000640D0A007047000000B587B001210846AD
:1005C00000F0E4FB0121042000F0F0FB0320ADF873
:1005D000000004208DF8030069461C4800F082F8F2
:1005E00004A801F037FA0020ADF810004FF6FF70B4
:1005F000ADF814000020ADF81600ADF8120004A903
:100600004FF0804001F0D4F900231A4603214FF047
:10061000804001F05FF801A801F0D4F80A20ADF89D
:100620000C0001A9400701F077F80122114690075C
:1006300001F0D1F800214FF0804001F08AF901214A
:10064000880701F02CF807B000BD00000008014049
:1006500000B587B00121022000F098FB01210420A1
:1006600000F0A4FBC020ADF8000004208DF80300CA
:1006700069461A4800F036F804A801F0EBF90020AA
:10068000ADF810004FF6FF70ADF814000020ADF883
:100690001600ADF8120004A9114801F089F90023F1
:1006A0001A4603210E4801F015F801A801F08AF856
:1006B0000A20ADF80C0001A9094801F02DF801222B
:1006C0001146074801F087F80021054801F041F97B
:1006D0000121034800F0E3FF07B000BD000801401E
:1006E000000400402DE9F0410246002500260020CC
:1006F00000230024002791F803C00CF00F0591F8A7
:1007000003C00CF0100CBCF1000F03D091F802C034
:100710004CEA050591F800C0BCF1000F31D0146817
:1007200000202BE04FF0010C0CFA00F3B1F800C0F0
:100730000CEA03069E4220D183004FF00F0C0CFA06
:1007400003F7BC4305FA03FC4CEA040491F803C028
:10075000BCF1280F06D14FF0010C0CFA00FCC2F8D6
:1007600014C00AE091F803C0BCF1480F05D14FF066
:10077000010C0CFA00FCC2F810C0401C0828D1D3B0
:100780001460B1F800C0BCF1FF0F34DD54680020E4
:100790002EE000F1080C4FF0010808FA0CF3B1F854
:1007A00000C00CEA03069E4221D183004FF00F0CDB
:1007B0000CFA03F7BC4305FA03FC4CEA040491F875
:1007C00003C0BCF1280F05D100F1080C08FA0CF8A1
:1007D000C2F8148091F803C0BCF1480F07D100F1B2
:1007E000080C4FF0010808FA0CF8C2F81080401C01
:1007F0000828CED35460BDE8F08100BFFEE70000BA
:100800002DE9F04F87B005460E46574806905748E9
:100810000590049000274FF0000800200390701B03
:1008200001F072FE04465248006841F61F418842BA
:1008300004D10021204601F07FFF09D34C48006815
:100840004C49884207D10021204601F075FE02D2B2
:100850000120039034E04848006801F055FE8246CC
:10086000214601F005FD814601F032FE4249086053
:100870004248059901F06AFD07464048059901F094
:1008800065FD80F000483C48006801F03DFE81466F
:10089000394601F051FF05D2384601F019FE3649BC
:1008A00008600DE03448006801F02EFE81464146A4
:1008B00001F042FE04D2404601F00AFE2E490860D3
:1008C0002F480168204601F069FF0090049901F06B
:1008D00067FE83462146069801F062FE5946019064
:1008E00001F0C6FC82462248006801F00DFE514628
:1008F000029001F0BDFC814601F0EAFD1C49086050
:100900000398C0B91C48006801F0FEFD83460599B4
:1009100001F046FE82461648006801F0F5FD51469A
:10092000029001F0A5FC814601F0D2FD104908605B
:1009300014A0FFF775FC0E480068B0F5E15F04DB1A
:1009400041F61F400A49086007E00948006810F5B1
:10095000E15F02DC07480649086009480460044872
:10096000006807B0BDE8F08F0000A0406F12033BA5
:1009700058000020E1E3FFFF5C00002000F8E045A4
:1009800060000020496E6372656D656E74616C5F16
:1009900050495F41203A21697353617475726174E3
:1009A000696F6E0D0A0000002DE9F04F87B0054613
:1009B0000E465748069057480590049000274FF080
:1009C000000800200390701B01F09EFD0446524871
:1009D000006841F61F41884204D10021204601F001
:1009E000ABFE09D34C4800684C49884207D100212E
:1009F000204601F0A1FD02D20120039034E04848D6
:100A0000006801F081FD8246214601F031FC8146FB
:100A100001F05EFD424908604248059901F096FCEC
:100A200007464048059901F091FC80F000483C4899
:100A3000006801F069FD8146394601F07DFE05D26E
:100A4000384601F045FD364908600DE0344800683D
:100A500001F05AFD8146414601F06EFD04D2404648
:100A600001F036FD2E4908602F480168204601F04C
:100A700095FE0090049901F093FD83462146069867
:100A800001F08EFD5946019001F0F2FB82462248AA
:100A9000006801F039FD5146029001F0E9FB814602
:100AA00001F016FD1C4908600398C0B91C48006895
:100AB00001F02AFD8346059901F072FD8246164831
:100AC000006801F021FD5146029001F0D1FB814602
:100AD00001F0FEFC1049086014A0FFF7A1FB0E48CE
:100AE0000068B0F5E15F04DB41F61F400A49086089
:100AF00007E00948006810F5E15F02DC0748064995
:100B00000860094804600448006807B0BDE8F08F39
:100B10003333D3406F12033B64000020E1E3FFFF57
:100B20006800002000F8E0456C000020496E637208
:100B3000656D656E74616C5F50495F42203A216952
:100B40007353617475726174696F6E0D0A000000F1
:100B500001464906084A926942F00102064B9A6131
:100B6000064A526822F0E062044B5A601A46526804
:100B70000A435A6070470000001002400000014024
:100B800000B5002015490861C860142048610020A4
:100B90008861C8610846006840F0010008600846A6
:100BA00040680F4908400D494860084600680D49F3
:100BB00008400A4908600846006820F48020086060
:100BC0000846406820F4FE0048600020886000214C
:100BD0004FF0006000F01CF800BD00000010024063
:100BE0000000FFF8FFFFF6FE0146072323EA01029B
:100BF0001202054B18684FF6FF031840034B1843C9
:100C00001043014B186070470CED00E00000FA053E
:100C1000024A0A400243024B1A60704780FFFF1FDE
:100C200008ED00E000BFFEE708B50121082000F054
:100C3000BDF84FF4C040ADF8000010208DF803005F
:100C400003208DF8020069460448FFF74BFD0020A1
:100C5000034908600349C1F8B80108BD000C014010
:100C6000B4812142008021427047000070B500210C
:100C700000230F22C47804B3154C246804F4E06404
:100C8000C4F5E064210AC1F10403CA40447804FABF
:100C900003F184781440214309010E4C0678A155D4
:100CA000047804F01F050124AC4005786D11AD00F7
:100CB00005F1E025C5F8004109E0047804F01F05BE
:100CC0000124AC40044D0678761145F8264070BDED
:100CD0000CED00E000E400E080E100E030B589B018
:100CE00005460C46FFF7A0FF0121042000F04EF856
:100CF0000121082000F05AF8C020ADF8200018208B
:100D00008DF8230003208DF8220008A91C48FFF766
:100D1000E9FCADF81850ADF814400020ADF81A0009
:100D2000ADF8160005A9174800F042FE6020ADF8A6
:100D300004000120ADF806000020ADF80A00ADF86F
:100D40000C0001A90F4800F04FFD01A90D4800F06B
:100D5000A1FD01210B4800F0AEFC0821094800F07C
:100D60008FFD0821074800F0E7FD0121054800F04C
:100D700087FC0121034800F092FC09B030BD00005F
:100D8000000C0140000800407047000029B1064AED
:100D9000D2690243044BDA6104E0034AD269824318
:100DA000014BDA61704700000010024029B1064A89
:100DB00092690243044B9A6104E0034A92698243B8
:100DC000014B9A61704700000010024030B50021CD
:100DD0000022002400232D4D6D6805F00C0121B187
:100DE000042905D0082923D105E0294D056022E01A
:100DF000274D05601FE0254D6D6805F47012234DE9
:100E00006D6805F48034022505EB92421CB9214D32
:100E1000554305600BE01D4D6D6805F400351DB1AF
:100E20001C4D5543056002E0194D5543056002E035
:100E3000174D056000BF00BF144D6D6805F0F0014F
:100E40000909154D6B5C0568DD4045600F4D6D6807
:100E500005F4E061090A104D6B5C4568DD40856072
:100E60000A4D6D6805F46051C90A0B4D6B5C45680D
:100E7000DD40C560054D6D6805F44041890B074DA7
:100E80006B5CC568B5FBF3F5056130BD0010024031
:100E900000127A0000093D000E0000201E00002014
:100EA00010B500231A461946012000F065F9002309
:100EB0001A461946022000F05FF900231A46194627
:100EC000032000F059F900231A461946042000F0C7
:100ED00053F900231A461946052000F04DF9002366
:100EE0001A461946062000F047F9062000F0DAF805
:100EF00010BD10B500231A46FF21012000F03CF977
:100F0000F5231A461946022000F036F9F5231A4651
:100F10001946032000F030F9F5231A46194604203B
:100F200000F02AF9F5231A461946052000F024F9A5
:100F300000231A46FF21062000F01EF9062000F0CB
:100F4000B1F810BD01202949086000BF00BF00BFF3
:100F500000BF00BF00BF00BF00BF00BF00BF00BF99
:100F600000BF00BF00BF00BF00BF00BF00BF00BF89
:100F700000BF00201E49C1F8B80100BF00BF00BF7C
:100F800000BF00BF00BF00BF00BF00BF00BF00BF69
:100F900000BF00BF00BF00BF00BF00BF00BF00BF59
:100FA00000BF00BF00BF00BF00BF00BF00BF00BF49
:100FB00000BF00BF00BF00BF00BF00BF00BF00BF39
:100FC00000BF00BF00BF00BF00BF00BF00BF00BF29
:100FD00000BF00BF00BF00BF00BF00BF00BF00BF19
:100FE00000BF00BF00BF00BF70470000B801224231
:100FF0000000224201202949086000BF00BF00BF55
:1010000000BF00BF00BF00BF00BF00BF00BF00BFE8
:1010100000BF00BF00BF00BF00BF00BF00BF00BFD8
:1010200000BF00BF00BF00BF00BF00BF00BF00BFC8
:1010300000BF00BF00BF00BF00BF00BF00BF00BFB8
:1010400000BF00BF00BF00BF00BF00BF00BF00BFA8
:1010500000BF00BF00BF00BF00BF00BF00BF00BF98
:1010600000BF00BF00BF00BF00200D49C1F8B8019C
:1010700000BF00BF00BF00BF00BF00BF00BF00BF78
:1010800000BF00BF00BF00BF00BF00BF00BF00BF68
:1010900000BF00BF00BF00BF70470000B801224280
:1010A0000000224270B50546002451E02C48005D46
:1010B00000F0800010B9FFF745FF01E0FFF79AFF4D
:1010C0002748005D00F0400010B9FFF73BFF01E04A
:1010D000FFF790FF2248005D00F0200010B9FFF7F5
:1010E00031FF01E0FFF786FF1D48005D00F01000B2
:1010F00010B9FFF727FF01E0FFF77CFF1848005DFC
:1011000000F0080010B9FFF71DFF01E0FFF772FFC4
:101110001348005D00F0040010B9FFF713FF01E071
:10112000FFF768FF0E48005D00F0020010B9FFF7FE
:1011300009FF01E0FFF75EFF0948005D00F00100D4
:1011400010B9FFF7FFFE01E0FFF754FF601CC4B2C7
:1011500005EB4500A042A9DC00F004F870BD0000DA
:101160009800002010B5002002490860422000F0DD
:10117000C0FD10BDB801224230B5441E04EB44044A
:10118000064D2A55441E04EB4404641C2955441E94
:1011900004EB4404A41C2B5530BD00009800002033
:1011A00070B50546022D02D0032D23D111E0012197
:1011B000880700F071FA4FF08040808C00B210492F
:1011C00008600846046800214FF0804000F0C1FB31
:1011D00012E001210B4800F05FFA0A482430008831
:1011E00000B209490860084604680021054800F07B
:1011F000B0FB01E0002400BF00BF204670BD00002E
:101200002400002000040040280000202DE9F041C7
:10121000044600250B4800684FF47A7191FBF0F00A
:101220004FF42F6191FBF0F8404601F06DF907464D
:10123000214601F0B5F9064601F04AF9054628466F
:10124000BDE8F0813C0000207047000000B5034677
:101250000A46002A08DB002016490860104600F004
:10126000B7FD154908800AE00120124908601046C0
:1012700000F0AEFD41F61F41081A0F490880002B0F
:101280000ADB00200B49091D0860184600F0A0FD8C
:101290000949091D08800CE001200649091D086064
:1012A000184600F095FD41F61F41081A0249091D34
:1012B000088000BDB48121423408004030B50446A6
:1012C0000025FFF75DFC1F48006840F480301D4991
:1012D000086000BF1B480068400C0028FAD04FF49B
:1012E000806018494860A01EC4B20846406840EAC1
:1012F000844048600846406840F4803048601248A6
:10130000006840F03200104908600E48006840F064
:1013100080700C49086000BF0A480068400E002831
:10132000FAD00848406840F002000649486005E0ED
:1013300004484068C0F3870505F00305022DF7D186
:1013400030BD0000001002400020024010B50A48E5
:101350000068401C08490860084600680749096899
:10136000B0FBF1F201FB120020B900200249086035
:1013700000F006F810BD0000400000203C000020F6
:101380002DE9F04128480078002844D027494868D2
:1013900000F002FF06460022254B00F0A5FD0446A2
:1013A00000F070FD234908602049C86800F0F4FE91
:1013B000064600221E4B00F097FD044600F062FD39
:1013C0001D49086019480068012806D119480168BC
:1013D0001A4801F0E5F817490860144880680128A8
:1013E00006D115480168154801F0DAF8124908607D
:1013F0000E480068012806D10C488068012802D1F7
:10140000FFF777FD01E0FFF74BFD0020064908706C
:101410000648002101600848016806480068FFF797
:101420003BF8BDE8F08100000D00002070000020B6
:1014300000005940480000204C000020000080BF00
:10144000F0B50C46154600220021068C4FF6FE77BB
:101450003E400684028B018C4FF60C7632407E1C97
:1014600006EA03162E433243104EB0420ED0104E01
:10147000B0420BD0B0F1804F08D00E4EB04205D034
:101480000D4EB04202D00D4EB04206D14FF6FD7661
:10149000314044F00106314305E04FF6F576314026
:1014A00044F00106314302830184F0BD002C014069
:1014B000003401400004004000080040000C0040DF
:1014C000F0B50C461546002200210026078C4FF689
:1014D000EF7C07EA0C070784028B018C4FF6FF773D
:1014E00007EA041640F6FF473A404FF6FF7707EA4F
:1014F00003373A434FF6FF7707EA05273A43114F80
:10150000B8420ED0104FB8420BD0B0F1804F08D087
:101510000E4FB84205D00E4FB84202D00D4FB84220
:1015200006D14FF6DF77394046F01007394305E022
:101530004FF65F77394044F0100739430283018446
:10154000F0BD0000002C01400034014000040040C8
:1015500000080040000C0040F0B50C461546002283
:1015600000210026078C4FF6FF6C07EA0C07078462
:10157000828B018C4FF6FF7707EA04264FF60C7733
:101580003A404FF6FF7707EA03172F433A43114FCC
:10159000B8420ED0104FB8420BD0B0F1804F08D0F7
:1015A0000E4FB84205D00E4FB84202D00D4FB84290
:1015B00006D14FF6FF57394046F48077394305E0AE
:1015C0004FF2FF57394044F48077394382830184D6
:1015D000F0BD0000002C0140003401400004004038
:1015E00000080040000C0040F0B50C4615460022F3
:1015F00000210026078C4EF6FF7C07EA0C070784C3
:10160000828B018C4FF6FF7707EA043640F6FF47DE
:101610003A404FF6FF7707EA05273A434FF6FF7740
:1016200007EA03373A43114FB8420ED0104FB84281
:101630000BD0B0F1804F08D00E4FB84205D00E4FFE
:10164000B84202D00D4FB84206D14DF6FF7739406F
:1016500046F48057394305E047F6FF57394044F4D4
:101660008057394382830184F0BD0000002C014083
:10167000003401400004004000080040000C00401D
:1016800021B1028842F08002028004E002884FF615
:101690007F731A4002807047CA430282704721B1AB
:1016A000028842F00102028004E002884FF6FE73D5
:1016B0001A400280704731B1B0F8442042F4004231
:1016C000A0F8442005E0B0F84420C2F30E02A0F8D0
:1016D00044207047F0B50C4615461E4600210022F6
:1016E00000230189028B038C4FF6F87739402143A0
:1016F0004FF6FC473A4040F201173A434FF6DD7788
:101700003B404FF6FF7707EA06172F433B43018123
:1017100002830384F0BD000070B505460C462448E2
:1017200085420ED0234885420BD0B5F1804F08D0BA
:101730002148854205D02148854202D02048854273
:1017400000D100E000BF208850B92389A2886188B9
:101750002846FFF775FEE188284600F0FCF825E0F2
:10176000208804280AD12389A28861882846FFF7A7
:10177000A7FEE188284600F0F7F817E0208808283F
:101780000AD12389A28861882846FFF7E5FEE1880F
:10179000284600F0F6F809E02389A28861882846E7
:1017A000FFF722FFE188284600F0F4F870BD000042
:1017B000002C0140003401400004004000080040BB
:1017C000000C004000210180418001218180002126
:1017D000C180018170471AB183890B43838102E084
:1017E00083898B438381704770B5002400220023D6
:1017F000058C4FF6FE7635400584028C8388048B79
:101800004FF68F752C40B51E2C400D882C43751E4D
:101810002A400D892A434D882A43144DA8420BD0F3
:10182000134DA84208D0134DA84205D0124DA8422E
:1018300002D0124DA84213D14FF6F7752A404D89B8
:101840002A434FF6FB752A408D882A434FF6FF65E1
:101850002B404FF6FF552B408D892B43CD892B43D1
:1018600083800483CD888586028470BD002C01406E
:101870000034014000400140004401400048014064
:101880000A460021018B4FF6F7731940114301837B
:101890007047000070B5002400220023058C4FF62D
:1018A000EF7635400584028C8388048B48F6FF75FB
:1018B0002C404FF6FF452C400D884FF6FF7606EA88
:1018C00005252C434FF6DF752A400D8906EA0515DC
:1018D0002A434D8806EA05152A43154DA84202D031
:1018E000144DA8421DD14FF67F752A404D894FF601
:1018F000FF7606EA05152A434FF6BF752A408D8804
:1019000006EA05152A434FF6FF352B404FF2FF75C7
:101910002B408D8906EA85052B43CD8906EA85058E
:101920002B4383800483CD880587028470BD00002B
:10193000002C0140003401400A460021018B4FF287
:10194000FF7319404FF6FF7303EA02231943018323
:10195000704781847047028B4FF6F3731A400283FD
:10196000028B0A4302837047028B4FF2FF331A4007
:101970000283028B4FF6FF7303EA01231A430283AB
:101980007047828B4FF6F3731A408283828B0A432F
:1019900082837047828B4FF2FF331A408283828B9F
:1019A0004FF6FF7303EA01231A4382837047000056
:1019B000002202881D4B98420ED01D4B98420BD03E
:1019C000B0F1804F08D01B4B984205D01A4B98427B
:1019D00002D01A4B984204D14FF68F731A404B88AD
:1019E0001A43174B984207D0164B984204D04FF633
:1019F000FF431A40CB881A4302808B8883850B886B
:101A000003850A4B98420BD0094B984208D00E4BE5
:101A1000984205D00D4B984202D00D4B984201D10F
:101A20000B7A03860123838270470000002C01405B
:101A3000003401400004004000080040000C004059
:101A400000100040001400400040014000440140EC
:101A5000004801404FF6FF71818000210180C18064
:101A6000418001727047000010B540F225511C48BA
:101A700000F055F8002832D0194800F00BF9C4B234
:101A800018481949097844540078FC2805D11648AB
:101A90000078401C1449087002E0002012490870C8
:101AA00010484079FD2816D100200F4908700D48D4
:101AB00040780E4908600B48807848600948C07833
:101AC000886008480079C86006480021016081806C
:101AD0000120074908702021014800F00BF810BDD3
:101AE00000380140040000200C000020700000209D
:101AF0000D00002001F40072B2F5007F00D100BF9C
:101B0000CA430280704721B1828942F40052828127
:101B100004E082894DF6FF731A408281704770B5E8
:101B20000246002400230025002040F66A16B14238
:101B300000D100BFC1F3421501F01F03012606FAD0
:101B400003F3012D02D19689334006E0022D02D124
:101B5000168A334001E0968A33400C12012606FAB9
:101B600004F41688344013B10CB1012000E00020C9
:101B700070BDF0B50346002400260025002040F685
:101B80006A17B94200D100BF1846C1F3421401F0F0
:101B90001F06012707FA06F5012C01D10C3004E0DD
:101BA000022C01D1103000E014301AB107682F4325
:101BB000076002E00768AF430760F0BD2DE9F0471A
:101BC00086B005460E460024A24600BFA146002767
:101BD000B08900B100BF2F462C8A4CF6FF7004403C
:101BE000F08804432C82AC894EF6F3100440B08890
:101BF00031890843718908430443AC81AC8A4FF6AC
:101C0000FF400440B0890443AC8201A8FFF7DEF82E
:101C10001F48874202D1DDF810A001E0DDF80CA0DA
:101C2000A88900F4004040B10AEBCA0000EB0A109A
:101C300031684900B0FBF1F807E00AEBCA0000EB9D
:101C40000A1031688900B0FBF1F86420B8FBF0F0AD
:101C500004012009642101FB1089A88900F40040D7
:101C600040B1322000EBC900B0FBF1F000F00700FA
:101C7000044308E0322000EB09106421B0FBF1F0CE
:101C800000F00F0004432C8106B0BDE8F08700008F
:101C90000038014001468888C0F30800704700BF43
:101CA000FEE7014600BF704708B501211020FFF78D
:101CB0007DF84FF4C040ADF8000010208DF803000F
:101CC00003208DF8020069460148FEF70BFD08BDB0
:101CD0000010014007E041F64B4100BF0A1EA1F190
:101CE000010399B2FAD1021EA0F1010398B2F2D118
:101CF000704706E0082100BF0A1EA1F1010399B256
:101D0000FAD1021EA0F1010398B2F3D1704700008E
:101D100000BF054A128802F04002002AF9D0C2B280
:101D2000014B1B1D1A807047003801400920FFF746
:101D3000C5FA0220FEF758FF4FF4E13000F050F8EA
:101D40000220FEF705FF0120FEF702FFFEF734FC3C
:101D5000FEF77EFC092141F61F40FEF7BFFFFFF7AB
:101D6000A3FF1549B1F1807F00D31DE021F07F4032
:101D7000401E4FF0E022506150170F22002807DA72
:101D800013071D0E0D4B00F00F04241F1D5503E01B
:101D900013071C0E0A4B1C5400BF00204FF0E0221A
:101DA00090610720106100BF06A0FEF739FA02E03B
:101DB0006420FFF78FFFFBE74019010018ED00E0FA
:101DC00000E400E0515354C7E0C8ED0D0A000000E4
:101DD0000146002901DA484200E008467047000049
:101DE00010B586B00446012144F20400FEF7DEFF80
:101DF0004FF40070ADF8140003208DF81600182081
:101E00008DF8170005A91D48FEF76CFC4FF48060A3
:101E1000ADF8140004208DF8170005A91748FEF747
:101E200061FC25208DF8000000208DF801000320C2
:101E30008DF8020001208DF803006846FEF716FFBA
:101E400001940020ADF80800ADF80A00ADF80C00D0
:101E5000ADF810000C20ADF80E0001A90848FFF7FE
:101E6000ADFE012240F225510548FFF782FE012117
:101E70000348FFF748FE06B010BD0000000801400F
:101E80000038014021F00042A2F16052B2F5801FFB
:101E900001F0004328BFD2F17F6C0BD95FEA001C30
:101EA00043EAC20242EB507018BF704728BF20F0CF
:101EB00001007047B2F5801FBCBF184670474FEA5B
:101EC000410C1CF5001F02D2084600F030BC70B572
:101ED00000F079F900000089FFF7F6BF4FF00040ED
:101EE000A0F58000704700002DE9C04130B4DFF854
:101EF000A0C23CEA111418BF3CEA131400F0EC80B5
:101F000081EA03051CEA111444EAD57418BF1CEADF
:101F1000131500F0C780A4EB05044FF0004545EA17
:101F2000C12145EAC32341EA505143EA525304F127
:101F30007F74994204F500344FEAC0204FEAC22270
:101F400008BF904200F09C804FEA13650FF24016E4
:101F5000765D4FEA134506FB05F7C7F1807706FB70
:101F600007F74FEAD737A7FB03687642C8F58038F2
:101F7000A7FB06CE38BFA8F1010807FB08E64FF023
:101F8000000EA6FB028CE6FB03CEDCF1000CCEF1CA
:101F9000004E38BFAEF1010EA6FB0C584FF0000703
:101FA0004FF00005E6FB0E87A1FB08C6A0FB07CE9D
:101FB00016EB0E0645F10005E1FB076515F1E04E55
:101FC0007EBFA4F580345FEA46066D4116F18007B6
:101FD00045F100054FEA17274FEA066647EA05670D
:101FE000A6F1DE46B6F1805F4FEA15251FD93846C7
:101FF00024F0010C05EBC471BCF1FE6F01EB0C1178
:1020000002D8F0BCBDE8008124425CBF01F5801E0F
:102010009EEAC47F02D4F0BCBDE80081244238D4DB
:10202000F0BCA1F1C041BDE8004100F01AB94FEA8F
:10203000D22242EA43524FEAD323A7FB02864FEA59
:10204000D02040EA415007FB03661EEA0E0F4FEA1C
:10205000D12105FB026658BFA6EB0056B6EB005631
:102060004FEA520E4EEAC37E18EB0E0E56EB530E9D
:10207000BDD518EB02085E417F1C55F10005B6E79F
:102080004FF480154FF000074FF000064FF00008A6
:10209000ADE7F0BC4FF0000001F1C04101F000419C
:1020A000BDE8008111EA0C1F0CEA131500D00CE00A
:1020B00013EA0C1F00F025804FF00000F0BC81EA0D
:1020C000030101F00041BDE80081F0BCBDE8004122
:1020D00081EA030100F0C5B8F0BCBDE8004170B56D
:1020E00000F071F8097EFC3E00F007B881EA0301B8
:1020F0004FF0000001F00041704781EA030100F059
:10210000B0B8F0BCBDE800414FF000002149704775
:10211000FFFDFBF9F7F5F4F2F0EEEDEBE9E8E6E4AC
:10212000E3E1E0DEDDDBDAD8D7D5D4D3D1D0CFCD33
:10213000CCCBCAC8C7C6C5C4C2C1C0BFBEBDBCBB6C
:10214000BAB9B8B7B6B5B4B3B2B1B0AFAEADACAB67
:10215000AAA9A8A8A7A6A5A4A3A3A2A1A09F9F9E41
:102160009D9C9C9B9A9999989797969595949393F3
:10217000929191908F8F8E8E8D8C8C8B8B8A89898A
:10218000888887878685858484838382828181800D
:102190000000FF070000F87F10F0004248BF4042F7
:1021A000B0FA80F310FA03F10AD0C3F11D0303F56E
:1021B00080634FEA415002EB035202EBD12170479A
:1021C0004FF0000070470EF1020E2EF0030E5EF885
:1021D000046B364205D4012A43EB030515F5001FB5
:1021E00012D8012841EB010C1CF5001F0CD80ED1B0
:1021F0004FEAD17C15F5001F0CEB4C0C0CF1020CD6
:1022000008BF4CEBD37C04E04FF0080C01E04FEA30
:10221000D37C0CEB4C0526FA05F606F00706B6F162
:10222000040C06D20EEB860CBDE870404CF0010C9D
:102230006047DFE80CF0090B02024FF000414FF05D
:102240000000A1F5002170BD19461046012851EB90
:10225000010418BFD4F5001484BF002001F0004130
:1022600070BD0808A0F500114FEA31017047000069
:1022700090EA010F48BF81F0004100F19682421AB6
:102280003CBF801A89184FEAD0524FF07F4C1CEAAD
:10229000410FA2EBD15318BF9CEA026F00F03B80C4
:1022A0004FF0004C4CEA00204CEA012121FA03FCDB
:1022B00010EB0C0C1ED202F1FF325FEA1C2040EB47
:1022C000C25038BF70471CF07F0F4FEA400C18BF58
:1022D000BCF17F4F38BF7047C3F12003994008BF5E
:1022E00020F00100BCF17F4F38BF7047A0F1C04023
:1022F00000F01DBA4FEA3C00000A40EBC25028BF74
:102300001CF0FF0F4FEA400CE6D018BFBCF17F4F26
:1023100038BF7047EAE79CEA026F05D010EA5C0F0D
:1023200008BF00F00040704710B500F0BAF900BFD8
:1023300064FBBE3E401058BFC0F14040491058BF3A
:10234000C1F140418142EFF3008070474FF47F0CB0
:102350001CEAD0121EBF1CEAD11392EA0C0F93EABA
:102360000C0F00F0858090EA010F48BF42F48072A4
:1023700040F4000C41F400002CF07F4120F07F403D
:1023800000B58142A2EB03020FF2081CACEB504EE9
:10239000C0F100009EF800E04FEA4E0E00FB0EFC7C
:1023A00038BF49004FEA2C1C02F5FA020CFB0EF371
:1023B0004FEACE1E4FEA112C4FEAC1210EEB635EAD
:1023C00042EB22420EFB0CFC4FEA1C5300FB0311B4
:1023D0004FEA112C4FEA01310EFB0CFC4FEADC4CAA
:1023E00000FB0C11C14228BF09184CEB03335DF808
:1023F00004EB10EB410143EBC250B2F57C0F38BF48
:10240000704729D512F0F00F1CBF00F1C04000F05A
:1024100000407047008182838485868788898B8C01
:102420008D8E8F919293959697999A9C9D9FA0A23D
:10243000A3A5A7A8AAACAEB0B2B3B5B7B9BCBEC08D
:10244000C2C5C7C9CCCED1D4D7D9DCDFE2E6E9EC2E
:10245000F0F3F7FAFE0000004FEA400C0CF1807C2C
:10246000BCF17E4F28BF7047B0F1C04000F05FB9AB
:1024700090EA010F0CEAD11348BF42F48072624522
:1024800038BF634507D213F47F0F16D080EA0100EE
:1024900000F00040704710B500F003F9097EFC3EE3
:1024A00000F005B880EA010000F00040704780EAC3
:1024B000010000F0004000F03AB912F47F0F04BFB1
:1024C0000248704780EA010000F031B90000C07F87
:1024D00041000B0ED3F19E0208D950F400034FEADD
:1024E000032323FA02F048BF4042704710B500F0C2
:1024F000D8F800BF49922480002070476FF0004256
:1025000082EA20007047000010F0004148BF4042BE
:10251000B0FA80F310FA03F2C3F19D030BD051EA35
:10252000C35101EB1220530638BF704700F1010080
:1025300008BF20F00100704750EA010C00F1138041
:102540001CF5000F58BFBCF5000F01D4884270473E
:1025500007D710F5000F58BF11F5000F15D48842AA
:102560007047894270471CF5000F04D5BCF5000F79
:10257000F7D5814270474FF0807C1CEB400F38BF8D
:102580001CEB410F01D28142704710B500F089F871
:10259000922449004FF000504FF08051FFF7CABE1F
:1025A0004FF47F0C1CEAD0121EBF1CEAD11392EA32
:1025B0000C0F93EA0C0F00F0478090EA010F48BF20
:1025C00042F480724FF0004C4CEA00204CEA0121AA
:1025D00002EB0302A0FB0113A2F50002002918BFC1
:1025E00043F001035B0028BF4FEA330342EB224272
:1025F0005FEA132C4CEBC2502EBFBCEB436FB2F51D
:102600007C0F70474FEA036CBCF1004F08BF20F00D
:102610000100B2F57C0F38BF70470BD582F0FF0286
:1026200012F5803FC8BF704700F1C040D8BF00F02E
:102630000040704700F5000C5FEA4C0C48BF704743
:10264000B0F1C04000F073B890EA010F0CEAD1136A
:1026500048BF42F48072624538BF634504D280EAC5
:10266000010000F00040704710B500F01AF800BFFC
:102670008900013E00F007B800F009B85FEA410C9C
:102680005FEA1C6C08D080EA010000F050B85FEAF5
:10269000400C5FEA1C6CF6D14FF00040A0F58000C2
:1026A00070470EF1020E2EF0030E5EF8044B24422A
:1026B00004D44FEA4102B2F17F4F11D84FEA4003F0
:1026C000B3F17F4F0CD80ED14FEAD07CB2F17F4FDF
:1026D0000CEB4C0C0CF1020C08BF4CEBD17C04E071
:1026E0004FF0080C01E04FEAD17C0CEB4C0324FACC
:1026F00003F404F00704B4F1040C06D20EEB840CCE
:10270000BDE810404CF0010C6047DFE80CF0070812
:1027100002024FF00040A0F5800010BD08464200C4
:1027200018BFD2F1807288BF00F0004010BDFF21B9
:1027300041EAD050C005704751EA000C00F1138007
:102740001CF5000F58BFBCF5000F01D48142704743
:1027500007D711F5000F58BF10F5000F15D48142AF
:102760007047894270471CF5000F04D5BCF5000F77
:10277000F7D5884270474FF0807C1CEB410F38BF83
:102780001CEB400F01D28842704780EA010081EAC9
:10279000000180EA0100FFF7F8BE000090EA010F97
:1027A00048BF81F000413FF56AAD421A04D882F07B
:1027B0000042A0EB020011444FEAD0524FF07F4C90
:1027C0001CEA410FA2EBD15318BF9CEA026F4AD01A
:1027D0004FF0004C4CEA00204CEA012121FA03FCA6
:1027E000B0EB0C0C0FD412F0FE0F36D05FEA4C00A9
:1027F0001DD5001240EBC25038BF70471CF03F0F90
:1028000018BF70470BE0A2F101025FEA1C2040EB09
:10281000C25038BF70471CF07F0F18BF7047C3F11C
:102820002003994014BF401E20F00100704780082B
:102830004FEA122308BF7047B0FA80FCA2EB0C02EB
:10284000CCF1280C60FA0CF093EA122F04BF00EBD5
:10285000C25070474FEAC3707047130A5FEADC103A
:1028600008BF7047F6E79CEA026F04D010EA5C0FDD
:1028700008BF0020704710B5FFF713FF40DFF63E9A
:1028800081F0004070470000A828000800000020E8
:10289000700000006C01000818290008700000207A
:1028A000A0020000880100080000000000000000F5
:1028B000000000000000000000000102030401020B
:1028C00003040607080902040608000000000000CF
:1028D00000000000000000000000000000000000F8
:1028E0000000000064000000000000000000000084
:1028F00000000000000000000000000000000000D8
:1029000000000000000000000000000000000000C7
:082910000000000000000000BF
:04000005080001D717
:00000001FF
