:020000040800F2
:1000000000040020CF0100086D120008330700082B
:10001000490B0008E90200085F2600080000000004
:100020000000000000000000000000000D1B0008A0
:10003000BD04000800000000E9140008AD1D000820
:10004000EF010008EF010008EF010008EF010008D0
:10005000EF010008EF010008EF010008EF010008C0
:10006000EF010008EF010008EF010008EF010008B0
:10007000EF010008EF010008EF010008EF010008A0
:10008000EF010008EF010008EF010008EF01000890
:10009000EF010008EF010008EF010008EF01000880
:1000A000EF010008EF010008EF010008EF01000870
:1000B000EF010008EF010008EF010008EF01000860
:1000C000EF010008EF010008EF010008EF01000850
:1000D000EF010008F5230008EF010008EF01000818
:1000E000EF010008EF010008EF010008EF01000830
:1000F000EF010008EF010008EF010008EF01000820
:10010000EF010008EF010008EF010008EF0100080F
:10011000EF010008EF010008EF010008EF010008FF
:10012000EF010008EF010008EF010008EF010008EF
:1001300000F002F800F03AF80AA090E8000C8244BF
:100140008344AAF10107DA4501D100F02FF8AFF29C
:10015000090EBAE80F0013F0010F18BFFB1A43F0A5
:1001600001031847942D0000B42D0000103A24BF5D
:1001700078C878C1FAD8520724BF30C830C144BF0C
:1001800004680C607047000000230024002500264E
:10019000103A28BF78C1FBD8520728BF30C148BFEA
:1001A0000B6070471FB51FBD10B510BD00F037F8CC
:1001B0001146FFF7F7FF02F079FA00F055F803B4A3
:1001C000FFF7F2FF03BC02F04CFA000070470B4847
:1001D00080470B4981F308880A480047FEE7FEE79D
:1001E000FEE7FEE7FEE7FEE7FEE7FEE7FEE7FEE7E7
:1001F00005480649044A064B70470000CD01000837
:10020000E803002031010008E8010020E803002095
:10021000E801002070477047704770477047754687
:1002200000F02CF8AE4605006946534620F0070062
:10023000854618B020B5FFF7DBFFBDE820404FF042
:1002400000064FF000074FF000084FF0000B21F0C0
:100250000701AC46ACE8C009ACE8C009ACE8C0098D
:10026000ACE8C0098D46704710B50446AFF3008076
:100270002046BDE81040FFF7A2BF000000487047CD
:100280008401002010B504460021204602F082FCC3
:1002900002D284F0004010BD2046FCE70146002950
:1002A00001DA484270470846FCE700002DE9F041BA
:1002B0000446204602F056FC8046084902F09EFCA7
:1002C0000746074902F09AFC0646064902F06CFB15
:1002D0000546284602F02AFCBDE8F08100F05246AF
:1002E00000002F452087B24B00BFFEE710B50D4838
:1002F0000078022800D110BD02200A49087000F0E1
:1003000013F8012407E000231A466421204601F077
:10031000A7FB601CC4B2062CF5DD00F037F800BF67
:10032000E9E700001A00002010B501240DE00023C9
:100330001A461946204600F031FB00231A4619469A
:10034000204601F08DFB601CC4B2062CEFDD10BD11
:1003500010B50D480078012800D110BD01200A49D0
:100360000870FFF7E1FF012407E050231A46194601
:10037000204600F013FB601CC4B2062CF5DD00F033
:1003800005F800BFE9E700001A00002010B572B6BA
:10039000062000F099FA062001F0F8FA62B610BDC6
:1003A00010B50F48007800B910BD00200C49087046
:1003B000FFF7BAFF01240DE000231A46462120462C
:1003C00000F0ECFA00231A464621204601F048FBD3
:1003D000601CC4B2062CEFDDFFF7D8FF00BFE3E7D7
:1003E0001A00002010B510480078032800D110BD75
:1003F00003200D490870FFF797FF01240DE000234B
:1004000037226421204600F0C9FA002337226421F4
:10041000204601F025FB601CC4B2032CEFDDFFF782
:10042000B5FF00BFE3E700001A00002010B5104838
:100430000078042800D110BD04200D490870FFF792
:1004400073FF04240DE0002337226421204600F0CE
:10045000A5FA002337226421204601F001FB601C2D
:10046000C4B2062CEFDDFFF791FF00BFE3E7000009
:100470001A00002070B506460D461446294630463F
:1004800002F088FB01D2284670BD2146304602F0BA
:1004900081FC01D22046F7E73046F5E70146B1F589
:1004A000004F02DB47F6FF70704711F5004F01DA8D
:1004B0000148F9E708B2F7E70080FFFF7047000046
:1004C0002DE9F0410446084D204602F04BFB8046E2
:1004D000064902F093FB0746294602F065FA0646F4
:1004E00002F024FBBDE8F08119344C4300002F4595
:1004F00000B587B00121084601F00EF90121042062
:1005000001F01AF90320ADF8000004208DF8030073
:1005100069461C4800F082F804A801F061FF002041
:10052000ADF810004FF6FF70ADF814000020ADF8E4
:100530001600ADF8120004A94FF0804001F0FEFE55
:1005400000231A4603214FF0804001F089FD01A8E5
:1005500001F0FEFD0A20ADF80C0001A9400701F0F2
:10056000A1FD01221146900701F0FBFD00214FF093
:10057000804001F0B4FE0121880701F056FD07B06C
:1005800000BD00000008014000B587B00121022035
:1005900001F0C2F80121042001F0CEF8C020ADF82E
:1005A000000004208DF8030069461A4800F036F870
:1005B00004A801F015FF0020ADF810004FF6FF7001
:1005C000ADF814000020ADF81600ADF8120004A933
:1005D000114801F0B3FE00231A4603210E4801F032
:1005E0003FFD01A801F0B4FD0A20ADF80C0001A9FF
:1005F000094801F057FD01221146074801F0B1FDFD
:100600000021054801F06BFE0121034801F00DFDBA
:1006100007B000BD00080140000400402DE9F04192
:10062000024600250026002000230024002791F820
:1006300003C00CF00F0591F803C00CF0100CBCF1D6
:10064000000F03D091F802C04CEA050591F800C0F4
:10065000BCF1000F31D0146800202BE04FF0010CEA
:100660000CFA00F3B1F800C00CEA03069E4220D158
:1006700083004FF00F0C0CFA03F7BC4305FA03FCA0
:100680004CEA040491F803C0BCF1280F06D14FF0E6
:10069000010C0CFA00FCC2F814C00AE091F803C087
:1006A000BCF1480F05D14FF0010C0CFA00FCC2F868
:1006B00010C0401C0828D1D31460B1F800C0BCF1B0
:1006C000FF0F34DD546800202EE000F1080C4FF0DD
:1006D000010808FA0CF3B1F800C00CEA03069E42C8
:1006E00021D183004FF00F0C0CFA03F7BC4305FA3D
:1006F00003FC4CEA040491F803C0BCF1280F05D1B7
:1007000000F1080C08FA0CF8C2F8148091F803C044
:10071000BCF1480F07D100F1080C4FF0010808FAAE
:100720000CF8C2F81080401C0828CED35460BDE8F5
:10073000F08100BFFEE7000001464906084A9269C1
:1007400042F00102064B9A61064A526822F0E062CA
:10075000044B5A601A4652680A435A6070470000B8
:10076000001002400000014001202949086000BF3C
:1007700000BF00BF00BF00BF00BF00BF00BF00BF81
:1007800000BF00BF00BF00BF00BF00BF00BF00BF71
:1007900000BF00BF00BF00201E49C1F8B40100BF68
:1007A00000BF00BF00BF00BF00BF00BF00BF00BF51
:1007B00000BF00BF00BF00BF00BF00BF00BF00BF41
:1007C00000BF00BF00BF00BF00BF00BF00BF00BF31
:1007D00000BF00BF00BF00BF00BF00BF00BF00BF21
:1007E00000BF00BF00BF00BF00BF00BF00BF00BF11
:1007F00000BF00BF00BF00BF00BF00BF00BF00BF01
:1008000000BF00BF00BF00BF00BF00BF70470000B7
:10081000B40122420000224201202949086000BFA1
:1008200000BF00BF00BF00BF00BF00BF00BF00BFD0
:1008300000BF00BF00BF00BF00BF00BF00BF00BFC0
:1008400000BF00BF00BF00BF00BF00BF00BF00BFB0
:1008500000BF00BF00BF00BF00BF00BF00BF00BFA0
:1008600000BF00BF00BF00BF00BF00BF00BF00BF90
:1008700000BF00BF00BF00BF00BF00BF00BF00BF80
:1008800000BF00BF00BF00BF00BF00BF00200D4978
:10089000C1F8B40100BF00BF00BF00BF00BF00BF70
:1008A00000BF00BF00BF00BF00BF00BF00BF00BF50
:1008B00000BF00BF00BF00BF00BF00BF7047000007
:1008C000B40122420000224270B50546002451E0E6
:1008D0002C48005D00F0800010B9FFF745FF01E0F3
:1008E000FFF79AFF2748005D00F0400010B9FFF7BE
:1008F0003BFF01E0FFF790FF2248005D00F0200081
:1009000010B9FFF731FF01E0FFF786FF1D48005DDA
:1009100000F0100010B9FFF727FF01E0FFF77CFFA0
:100920001848005D00F0080010B9FFF71DFF01E056
:10093000FFF772FF1348005D00F0040010B9FFF7E5
:1009400013FF01E0FFF768FF0E48005D00F00200B2
:1009500010B9FFF709FF01E0FFF75EFF0948005DEE
:1009600000F0010010B9FFF7FFFE01E0FFF754FFB0
:10097000601CC4B205EB4500A042A9DC00F004F8FD
:1009800070BD00008C00002010B5002002490860F6
:10099000422001F07DFE10BDB401224230B5441E5C
:1009A00004EB4404064D2A55441E04EB4404641C25
:1009B0002955441E04EB4404A41C2B5530BD0000F3
:1009C0008C000020F8B54FF07E5558E0BDF90000CE
:1009D000FFF764FC0746BDF90200FFF75FFC3E1815
:1009E00006EBD6704410022C00DA48E02748006875
:1009F00084422ADD204602F0B5F806462348006806
:100A000002F0B0F80746314601F0CEFF0546BDF9C9
:100A1000000002F0A7F80746294602F0EFF8064664
:100A200002F084F800B2ADF80000BDF9020002F057
:100A300099F80746294602F0E1F8064602F076F8F2
:100A400000B2ADF8020011480468BDF90000104979
:100A50000968081A0F490860BDF902000E490968C3
:100A6000081A0E49086009480068001B0749086019
:100A700000200B49087001F03DF80120F8BD6846E0
:100A800000F0A4FC0028A1D100BFF7E76C00002013
:100A900028000020380000202C0000203C0000200E
:100AA0004A00002000B5002015490861C8601420E4
:100AB000486100208861C8610846006840F0010074
:100AC0000860084640680F4908400D4948600846DC
:100AD00000680D4908400A4908600846006820F48B
:100AE000802008600846406820F4FE00486000202E
:100AF000886000214FF0006000F01CF800BD00008D
:100B0000001002400000FFF8FFFFF6FE0146072339
:100B100023EA01021202054B18684FF6FF03184042
:100B2000034B18431043014B186070470CED00E075
:100B30000000FA05024A0A400243024B1A6070475D
:100B400080FFFF1F08ED00E000BFFEE72DE9F04148
:100B50000446094D204602F005F88046074902F098
:100B60004DF80746064902F049F80646294601F0C5
:100B70001BFFBDE8F081000019344C4300002F45F5
:100B80000AD7233C2DE9F04F89B0AC480078039098
:100B9000022000F079FF05B2032000F075FF04B2D7
:100BA000A74800682844A6490860A6480068204471
:100BB000A449086021462846039A00F06DFCA2482B
:100BC00000682844A0490860A048006820449F4964
:100BD00008600398012809D19D48006828449C4971
:100BE00008609C48006820449A490860934800784F
:100BF00030B90021084600F08BFF09B0BDE8F08F46
:100C000095480088401C944908808C480078012849
:100C100003D10846008832280DD888480078022879
:100C200003D08648007803280BD18B48008840F217
:100C3000DC51884205D901F0A3F8052000F052FDEF
:100C4000DBE77E480078012846D18448B0F90000EF
:100C5000FFF77CFF80468248B0F90000FFF776FF7F
:100C600006467E48B0F90000002804DD7C48B0F953
:100C70000000002809DC7948B0F9000000282ADAD1
:100C80007748B0F900000028F9DA71490968714A1B
:100C90001268881A01F066FF06907249069801F002
:100CA000ADFF4FF0804251420190FFF7E3FB414618
:100CB000029002F0A0F880466A49069801F09EFF73
:100CC0004FF0804251420190FFF7D4FB3146029031
:100CD00001F0FCFD06469EE0634800685A49096839
:100CE000A0EB01096148006858490968A0EB010AB6
:100CF0005F48008800B2FFF729FF0290FFF7C2FAB1
:100D000083465946484600F0F1FB80465946504616
:100D100000F0ECFB064654480068002802DB4A4815
:100D2000006802E048480068404208904F48006868
:100D3000002802DB4548016802E04448006841425F
:100D40000791DDE90712501A01F00CFF06904846A2
:100D5000FFF7A4FA0A2829DD5046FFF79FFA0A2870
:100D600024DD4449069801F049FF4FF0804251428A
:100D70000290FFF77FFB07463B480068002801DB35
:100D8000384601E087F000404146029002F033F817
:100D9000804636480068002801DB384601E087F0CD
:100DA00000403146029001F091FD06464846FFF7AB
:100DB00075FA0A282CDC5046FFF770FA0A2827DC5F
:100DC0002846FFF76BFA022822DC2046FFF766FA76
:100DD00002281DDC28480078401CC0B22649087053
:100DE000082818D31548007803280BD12348006839
:100DF000002807DDFFF7E6FD20B10021084600F0DE
:100E000087FEFAE600F0BCFF022000F06BFCF4E67F
:100E10000020194908702A464146194800F0B0FEE2
:100E2000059022463146174800F0AAFE0490DDE9FD
:100E3000041000F06DFE00BFDFE600002600002079
:100E40007000002074000020280000202C000020EA
:100E50003000002034000020460000204000002028
:100E600042000020A69B443C380000203C000020AB
:100E7000440000208FC2753C4A0000206C00002016
:100E800050000020580000202DE9F84F04460D4680
:100E900072B6164806681648076862B6DFF85480CE
:100EA000304601F05FFE4146009001F0A7FE834608
:100EB000114901F079FD824601F038FE8146FFF7C5
:100EC000EDFA2080384601F04DFE4146009001F0D9
:100ED00095FE8346084901F067FD824601F026FE33
:100EE0008146FFF7DBFA2880BDE8F88F700000200C
:100EF0007400002019344C4300002F4570B506469D
:100F00000C4615460B48007808B9002070BD72B633
:100F10000948007830700948007820700848007847
:100F2000287000200349087062B6FFF739FA0120E3
:100F3000ECE700004B0000204C0000204D0000209A
:100F40004E00002010B500200D4908800D490860B2
:100F50000D4908600D4908600D4908600D49087089
:100F60000D4908700D4908700D4908700D49086059
:100F70000D49086000F004FFFFF712FA10BD0000F1
:100F800024000020280000202C0000203000002039
:100F9000340000204B000020600000206100002091
:100FA000620000206400002068000020F8B50446BC
:100FB0000D46164614F57A7F03DBB4F57A7F00DC24
:100FC0000CB90320F8BD2046FFF77AFA0746032341
:100FD0002A4639463846009600F03EFE012807D0E2
:100FE00008480078022801D10420EBE70320E9E754
:100FF000002C02DDFFF7ACF901E0FFF777F90120E3
:10100000E0E70000260000202DE9F04104460D46EF
:101010001646142C06D3B4F5967F03D8322D01D38F
:10102000962D02D90320BDE8F08172B61D480078E4
:10103000022803D01B480078032802D162B604209E
:10104000F1E700F0A3F91848007810B962B6032060
:10105000E9E720B2FFF734FA074600201349086099
:101060001349086013480580134807600520134999
:101070000870134806700020124908801249087051
:10108000032008490870FFF79DFC28B90020054996
:10109000087062B60320C6E762B6FFF727F90120A1
:1010A000C1E7000026000020610000202800002089
:1010B0002C000020440000206C000020480000208C
:1010C00049000020460000204A0000202DE9F0479A
:1010D00004460D46904614F1FA0F06DBFA2C04DCA8
:1010E00015F1FA0F01DBFA2D02DD0320BDE8F087D0
:1010F00072B62B4890F800902A48B0F900602A4850
:10110000B0F90070B9F1010F0FD1002E01DA002CF7
:101110000BDA002E01DD002C07DD002F01DA002D97
:1011200003DA002F06DD002D04DC00201F490860D3
:101130001F4908601B4804801B48058002201D4988
:1011400008701D4880F8008000201C49088004B900
:101150000DB1012000E000201149087062B610486E
:10116000007830B90021084600F0D2FCFFF718F9EA
:1011700014E0002C04DB002D02DBFFF7E9F80DE0A2
:10118000002C04DC002D02DCFFF7B0F806E0AC42D6
:1011900002DAFFF727F901E0FFF748F90120A5E798
:1011A00026000020400000204200002030000020E7
:1011B00034000020480000204900002046000020A4
:1011C00010B5044600F0DCFDFFF7EAF8022010BD80
:1011D000F8B504460E46174614F5E16F03DBB4F587
:1011E000E16F00DC0CB90320F8BD2046FFF75EF884
:1011F00005460423324629466842009700F02CFD3C
:10120000012807D008480078022801D10420EBE724
:101210000320E9E7002C02DDFFF7E4F801E0FFF727
:1012200005F90120E0E700002600002008B50121B3
:10123000082000F081FA4FF4C040ADF80000102003
:101240008DF8030003208DF8020069460448FFF77B
:10125000E5F90020034908600349C1F8B80108BD59
:10126000000C0140B48121420080214270470000FF
:1012700070B5002100230F22C47804B3154C2468F4
:1012800004F4E064C4F5E064210AC1F10403CA4037
:10129000447804FA03F184781440214309010E4C88
:1012A0000678A155047804F01F050124AC400578A8
:1012B0006D11AD0005F1E025C5F8004109E00478A5
:1012C00004F01F050124AC40044D0678761145F862
:1012D000264070BD0CED00E000E400E080E100E09D
:1012E00030B589B005460C46FFF7A0FF0121042068
:1012F00000F012FA0121082000F01EFAC020ADF81B
:10130000200018208DF8230003208DF8220008A962
:101310001C48FFF783F9ADF81850ADF814400020D1
:10132000ADF81A00ADF8160005A9174801F006F847
:101330006020ADF804000120ADF806000020ADF8F3
:101340000A00ADF80C0001A90F4800F013FF01A935
:101350000D4800F065FF01210B4800F072FE0821E6
:10136000094800F053FF0821074800F0ABFF0121B6
:10137000054800F04BFE0121034800F056FE09B07D
:1013800030BD0000000C01400008004070B50C4862
:10139000007860B10B480068FFF780F804460A48FF
:1013A0000068FFF77BF80546214600F037F800207B
:1013B00005490860034908600149087070BD0000D4
:1013C00062000020680000206400002010B5014683
:1013D0000F48007808B9002010BD0E4800780C4B6B
:1013E0001B781844401E3223B0FBF3F403FB1402B5
:1013F000094830F822000880074800EB8200408846
:10140000488003480078401E014B18700120E3E734
:101410006100002060000020BC0000202DE9F041A8
:1014200006460C463046FEF739FF07462046FEF7D3
:1014300035FF3844042801DABDE8F081134800780C
:1014400032280CD312480078401C3221B0FBF1F254
:1014500001FB12000E49087031200C4908700C483D
:1014600000780A49097808443221B0FBF1F201FB07
:101470001205084820F8256000EB850044800348E9
:101480000078401C0149087000BFD5E761000020CA
:1014900060000020BC00002070B505460E461446D2
:1014A000032C00D170BD14B9FFF770FFFAE70B48A9
:1014B0000068284409490860094800683044084920
:1014C000086008480078401CC0B2064908700A2825
:1014D00001D3FFF75BFF00BFE4E7000064000020DA
:1014E0006800002062000020704700002DE9F041F4
:1014F00004460D46204601F035FB0746124901F02F
:101500007DFB064685F000472A4639463046FEF701
:10151000B1FF06460A2C05DD0C49304601F03AFBC6
:1015200000D20A4E14F10A0F05DA0949304601F0DB
:1015300031FC00D2064E2046FEF7B0FE0A2800DC41
:1015400000263046BDE8F081CDCCCC3D00002040E7
:10155000000020C002460020002103E0535C5840F8
:101560004B1CD9B20829F9DB704700002DE9FE4376
:1015700005460E4617469846002240F225511D4862
:1015800000F0D3FF1C48007840B9012240F22551F9
:10159000184800F0CAFF0020BDE8FE83002405E0E3
:1015A0001648005D0DF80400601CC4B20A2CF7D385
:1015B000002011490870012240F225510D4800F029
:1015C000B4FF9DF8020028709DF8030030709DF86C
:1015D00004009DF8051040EA012000B238809DF813
:1015E00006009DF8071040EA012000B2A8F80000AC
:1015F0000120D1E7003801400500002082000020D2
:10160000FEB505460E461746A5208DF800005A2067
:101610008DF8010045F080008DF802008DF8036020
:101620008DF8047000208DF805008DF806008DF807
:1016300007006846FFF78EFF8DF808000D208DF833
:10164000090000240DE01DF80410074801F003F81C
:1016500000BF8021044800F031FF0028F9D0601C51
:10166000C4B20A2CEFD3FEBD003801402DE9FE4381
:101670000746884614461D46A5208DF800005A20CE
:101680008DF8010047F080008DF802008DF803808E
:10169000E0B28DF80400200A8DF80500E8B28DF85C
:1016A0000600280A8DF807006846FFF753FF8DF8FB
:1016B00008000D208DF8090000260DE01DF8061029
:1016C000074800F0C8FF00BF8021054800F0F6FE83
:1016D0000028F9D0701CC6B20A2EEFD3BDE8FE83F5
:1016E0000038014006490978064A11700649097810
:1016F000064A1170064908700121064A11707047A8
:10170000480000204C000020490000204D0000202F
:101710004E0000204B00002029B1064AD269024346
:10172000044BDA6104E0034AD2698243014BDA6177
:10173000704700000010024029B1064A9269024336
:10174000044B9A6104E0034A92698243014B9A6117
:10175000704700000010024030B500210022002434
:1017600000232D4D6D6805F00C0121B1042905D031
:10177000082923D105E0294D056022E0274D0560A9
:101780001FE0254D6D6805F47012234D6D6805F45A
:101790008034022505EB92421CB9214D554305606A
:1017A0000BE01D4D6D6805F400351DB11C4D554312
:1017B000056002E0194D5543056002E0174D0560D4
:1017C00000BF00BF144D6D6805F0F0010909154D0B
:1017D0006B5C0568DD4045600F4D6D6805F4E061A8
:1017E000090A104D6B5C4568DD4085600A4D6D68E7
:1017F00005F46051C90A0B4D6B5C4568DD40C5605E
:10180000054D6D6805F44041890B074D6B5CC5685B
:10181000B5FBF3F5056130BD0010024000127A00FF
:1018200000093D0006000020160000200120294983
:10183000086000BF00BF00BF00BF00BF00BF00BF07
:1018400000BF00BF00BF00BF00BF00BF00BF00BFA0
:1018500000BF00BF00BF00BF00BF00201E49C1F88D
:10186000B80100BF00BF00BF00BF00BF00BF00BF86
:1018700000BF00BF00BF00BF00BF00BF00BF00BF70
:1018800000BF00BF00BF00BF00BF00BF00BF00BF60
:1018900000BF00BF00BF00BF00BF00BF00BF00BF50
:1018A00000BF00BF00BF00BF00BF00BF00BF00BF40
:1018B00000BF00BF00BF00BF00BF00BF00BF00BF30
:1018C00000BF00BF00BF00BF00BF00BF00BF00BF20
:1018D00070470000B801224200002242012029493D
:1018E000086000BF00BF00BF00BF00BF00BF00BF57
:1018F00000BF00BF00BF00BF00BF00BF00BF00BFF0
:1019000000BF00BF00BF00BF00BF00BF00BF00BFDF
:1019100000BF00BF00BF00BF00BF00BF00BF00BFCF
:1019200000BF00BF00BF00BF00BF00BF00BF00BFBF
:1019300000BF00BF00BF00BF00BF00BF00BF00BFAF
:1019400000BF00BF00BF00BF00BF00BF00BF00BF9F
:1019500000200D49C1F8B80100BF00BF00BF00BFA3
:1019600000BF00BF00BF00BF00BF00BF00BF00BF7F
:1019700000BF00BF00BF00BF00BF00BF00BF00BF6F
:1019800070470000B80122420000224270B50546AF
:10199000002451E02C48005D00F0800010B9FFF7F2
:1019A00045FF01E0FFF79AFF2748005D00F0400087
:1019B00010B9FFF73BFF01E0FFF790FF2248005D01
:1019C00000F0200010B9FFF731FF01E0FFF786FFBC
:1019D0001D48005D00F0100010B9FFF727FF01E07F
:1019E000FFF77CFF1848005D00F0080010B9FFF712
:1019F0001DFF01E0FFF772FF1348005D00F00400D7
:101A000010B9FFF713FF01E0FFF768FF0E48005D14
:101A100000F0020010B9FFF709FF01E0FFF75EFFD9
:101A20000948005D00F0010010B9FFF7FFFE01E07A
:101A3000FFF754FF601CC4B205EB4500A042A9DCCF
:101A400000F004F870BD0000A400002010B50020D4
:101A500002490860422000F01BFE10BDB80122427E
:101A600030B5441E04EB4404064D2A55441E04EBD5
:101A70004404641C2955441E04EB4404A41C2B5547
:101A800030BD0000A400002070B50546022D02D034
:101A9000032D23D111E00121880700F0C3FA4FF094
:101AA0008040808C00B2104908600846046800211C
:101AB0004FF0804000F013FC12E001210B4800F0D1
:101AC000B1FA0A482430008800B209490860084683
:101AD00004680021054800F002FC01E0002400BF7A
:101AE00000BF204670BD00001C0000200004004024
:101AF0002000002000200349086048600249086077
:101B000048607047500000205800002070470000D7
:101B100000B503460A46002A08DB00201649086083
:101B2000104600F079FE154908800AE001201249AC
:101B30000860104600F070FE41F61F41081A0F4978
:101B40000880002B0ADB00200B49091D086018469D
:101B500000F062FE0949091D08800CE001200649D9
:101B6000091D0860184600F057FE41F61F41081A8B
:101B70000249091D088000BDB4812142340800409B
:101B80002DE9FE4F04460E4617463046FEF77AFB17
:101B90008146274900F0FEFF04D2002020606060EB
:101BA000BDE8FE8F384600F0DDFF8146314601F08A
:101BB00022F905462946206800F088FE81461D4A24
:101BC0001D49FEF757FC20600021304601F0E2F885
:101BD00001D21A4800E01A4802902846616801F0D4
:101BE00015F98346174901F009F88146164821681E
:101BF00001F004F829460190144800F0FFFF00901E
:101C0000029900F063FE8346019900F05FFE824670
:101C1000494600F05BFE804665600D4A0D4940462E
:101C2000FEF728FC8046404600F080FFB8E7000041
:101C3000CDCC4C3E00003443000034C300C02845E6
:101C400000C028C5000090410000E0400000E642CE
:101C500000F8E04500F8E0C52DE9F04105460E46E4
:101C600014461F46DDF8188017480078022803D074
:101C700015480078032802D10420BDE8F081322CF9
:101C800003DBDC2C01DC15B90EB90320F5E70020DD
:101C90000E4908600E4908600E4805600E4806604F
:101CA0000E4804800E4807700E4880F8008000201F
:101CB0000D4908800D490870FFF71CFF02200249FA
:101CC00008700120D9E7000026000020280000202D
:101CD0002C000020380000203C00002044000020A0
:101CE0004800002049000020460000204A00002053
:101CF00030B504460025FEF7D5FE1F48006840F4C5
:101D000080301D49086000BF1B480068400C002857
:101D1000FAD04FF4806018494860A01EC4B208464B
:101D2000406840EA844048600846406840F480309B
:101D300048601248006840F03200104908600E48C0
:101D4000006840F080700C49086000BF0A480068D5
:101D5000400E0028FAD00848406840F002000649CA
:101D6000486005E004484068C0F3870505F00305B6
:101D7000022DF7D130BD00000010024000200240CB
:101D800010B50020064908700649088006490880F9
:101D900000210846FFF7BCFEFFF7ACFE10BD0000B7
:101DA00026000020400000204200002010B5064818
:101DB0000088401C80B2044908800A2803D3002010
:101DC0000880FEF7DFFE10BD24000020F0B50C46B1
:101DD000154600220021068C4FF6FE773E40068411
:101DE000028B018C4FF60C7632407E1C06EA0316FD
:101DF0002E433243104EB0420ED0104EB0420BD0A4
:101E0000B0F1804F08D00E4EB04205D00D4EB0421A
:101E100002D00D4EB04206D14FF6FD76314044F06F
:101E20000106314305E04FF6F576314044F00106F6
:101E3000314302830184F0BD002C01400034014095
:101E40000004004000080040000C0040F0B50C46C3
:101E50001546002200210026078C4FF6EF7C07EA8A
:101E60000C070784028B018C4FF6FF7707EA0416F4
:101E700040F6FF473A404FF6FF7707EA03373A4309
:101E80004FF6FF7707EA05273A43114FB8420ED0C5
:101E9000104FB8420BD0B0F1804F08D00E4FB8426F
:101EA00005D00E4FB84202D00D4FB84206D14FF6C2
:101EB000DF77394046F01007394305E04FF65F778A
:101EC000394044F01007394302830184F0BD00001B
:101ED000002C014000340140000400400008004094
:101EE000000C0040F0B50C461546002200210026EB
:101EF000078C4FF6FF6C07EA0C070784828B018C76
:101F00004FF6FF7707EA04264FF60C773A404FF674
:101F1000FF7707EA03172F433A43114FB8420ED019
:101F2000104FB8420BD0B0F1804F08D00E4FB842DE
:101F300005D00E4FB84202D00D4FB84206D14FF631
:101F4000FF57394046F48077394305E04FF2FF5799
:101F5000394044F48077394382830184F0BD000026
:101F6000002C014000340140000400400008004003
:101F7000000C0040F0B50C4615460022002100265A
:101F8000078C4EF6FF7C07EA0C070784828B018CD6
:101F90004FF6FF7707EA043640F6FF473A404FF620
:101FA000FF7707EA05273A434FF6FF7707EA03373B
:101FB0003A43114FB8420ED0104FB8420BD0B0F197
:101FC000804F08D00E4FB84205D00E4FB84202D015
:101FD0000D4FB84206D14DF6FF77394046F4805791
:101FE000394305E047F6FF57394044F480573943F9
:101FF00082830184F0BD0000002C014000340140C8
:102000000004004000080040000C004021B102889C
:1020100042F08002028004E002884FF67F731A408B
:1020200002807047CA430282704721B1028842F0A1
:102030000102028004E002884FF6FE731A4002801B
:10204000704731B1B0F8442042F40042A0F8442077
:1020500005E0B0F84420C2F30E02A0F84420704717
:10206000F0B50C4615461E460021002200230189CA
:10207000028B038C4FF6F877394021434FF6FC472B
:102080003A4040F201173A434FF6DD773B404FF6B6
:10209000FF7707EA06172F433B430181028303843E
:1020A000F0BD000070B505460C46244885420ED0B0
:1020B000234885420BD0B5F1804F08D02148854296
:1020C00005D02148854202D02048854200D100E059
:1020D00000BF208850B92389A28861882846FFF76D
:1020E00075FEE188284600F0FCF825E020880428E9
:1020F0000AD12389A28861882846FFF7A7FEE188D4
:10210000284600F0F7F817E0208808280AD123892C
:10211000A28861882846FFF7E5FEE188284600F09E
:10212000F6F809E02389A28861882846FFF722FF94
:10213000E188284600F0F4F870BD0000002C014052
:10214000003401400004004000080040000C004042
:10215000002101804180012181800021C180018115
:1021600070471AB183890B43838102E083898B43D3
:102170008381704770B5002400220023058C4FF640
:10218000FE7635400584028C8388048B4FF68F756C
:102190002C40B51E2C400D882C43751E2A400D89FD
:1021A0002A434D882A43144DA8420BD0134DA84210
:1021B00008D0134DA84205D0124DA84202D0124DAE
:1021C000A84213D14FF6F7752A404D892A434FF69E
:1021D000FB752A408D882A434FF6FF652B404FF64A
:1021E000FF552B408D892B43CD892B43838004835E
:1021F000CD888586028470BD002C014000340140EA
:102200000040014000440140004801400A460021CE
:10221000018B4FF6F773194011430183704700009B
:1022200070B5002400220023058C4FF6EF76354070
:102230000584028C8388048B48F6FF752C404FF68A
:10224000FF452C400D884FF6FF7606EA05252C4306
:102250004FF6DF752A400D8906EA05152A434D8899
:1022600006EA05152A43154DA84202D0144DA8428E
:102270001DD14FF67F752A404D894FF6FF7606EA4D
:1022800005152A434FF6BF752A408D8806EA0515C5
:102290002A434FF6FF352B404FF2FF752B408D89B7
:1022A00006EA85052B43CD8906EA85052B43838005
:1022B0000483CD880587028470BD0000002C014096
:1022C000003401400A460021018B4FF2FF73194090
:1022D0004FF6FF7303EA0223194301837047818499
:1022E0007047028B4FF6F3731A400283028B0A4346
:1022F00002837047028B4FF2FF331A400283028B36
:102300004FF6FF7303EA01231A4302837047828B5F
:102310004FF6F3731A408283828B0A43828370479D
:10232000828B4FF2FF331A408283828B4FF6FF730A
:1023300003EA01231A4382837047000000220288C7
:102340001D4B98420ED01D4B98420BD0B0F1804FE0
:1023500008D01B4B984205D01A4B984202D01A4B1A
:10236000984204D14FF68F731A404B881A43174B8B
:10237000984207D0164B984204D04FF6FF431A40BC
:10238000CB881A4302808B8883850B8803850A4B90
:1023900098420BD0094B984208D00E4B984205D07A
:1023A0000D4B984202D00D4B984201D10B7A038617
:1023B0000123838270470000002C0140003401405B
:1023C0000004004000080040000C004000100040E5
:1023D000001400400040014000440140004801401A
:1023E0004FF6FF71818000210180C1804180017220
:1023F0007047000070B540F22551254800F06BF899
:1024000000B970BD224800F021F9C4B2214800781B
:1024100010B9A52C00D0F4E71E48007801280AD195
:102420005A2C08D0A52C00D100E0002019490870D2
:1024300019480470E5E717490878411C154A1170DE
:1024400015490C54104600780A2800D2D9E700201C
:10245000104908701048407A0D2806D10E48FFF741
:1024600079F80D49097A884200D0CAE70B4800780C
:1024700060B9002505E00848405D09494855681CD9
:10248000C5B20A2DF7D301200449087000BFB8E790
:1024900000380140040000207800002005000020E2
:1024A0008200002021B1828942F40052828104E03E
:1024B00082894DF6FF731A408281704702460020E0
:1024C000B1F5007F00D100BF13880B400BB1012094
:1024D00000E00020704770B502460024002300256C
:1024E000002040F66A16B14200D100BFC1F3421588
:1024F00001F01F03012606FA03F3012D02D196898C
:10250000334006E0022D02D1168A334001E0968A5C
:1025100033400C12012606FA04F41688344013B135
:102520000CB1012000E0002070BDF0B5034600248E
:1025300000260025002040F66A17B94200D100BFEE
:102540001846C1F3421401F01F06012707FA06F5E9
:10255000012C01D10C3004E0022C01D1103000E03C
:1025600014301AB107682F43076002E00768AF43D1
:102570000760F0BD2DE9F04786B005460E46002401
:10258000A24600BFA1460027B08900B100BF2F4678
:102590002C8A4CF6FF700440F08804432C82AC89EE
:1025A0004EF6F3100440B08831890843718908431E
:1025B0000443AC81AC8A4FF6FF400440B089044329
:1025C000AC8201A8FFF7C8F81F48874202D1DDF8A6
:1025D00010A001E0DDF80CA0A88900F4004040B193
:1025E0000AEBCA0000EB0A1031684900B0FBF1F8B1
:1025F00007E00AEBCA0000EB0A1031688900B0FB63
:10260000F1F86420B8FBF0F004012009642101FB1B
:102610001089A88900F4004040B1322000EBC900C5
:10262000B0FBF1F000F00700044308E0322000EBBB
:1026300009106421B0FBF1F000F00F0004432C817D
:1026400006B0BDE8F08700000038014001468888E8
:10265000C0F308007047C1F308028280704700BFD2
:10266000FEE7704708B501211020FFF765F84FF429
:10267000C040ADF8000010208DF8030003208DF855
:10268000020069460148FDF7C9FF08BD001001407E
:1026900006E0082100BF0A1EA1F1010399B2FAD198
:1026A000021EA0F1010398B2F3D170478AB009204D
:1026B000FFF71EFB0220FEF729FA4FF4E13000F08D
:1026C000B3F80220FEF738F80120FEF735F8FDF7E1
:1026D0000FFFFDF759FF092141F61F40FEF700FEED
:1026E000FFF7C0FFFEF72EFC4849B1F1807F00D311
:1026F0001DE021F07F40401E4FF0E0225061501756
:102700000F22002807DA13071E0E414B00F00F05B9
:102710002D1F5E5503E013071D0E3E4B1D5400BFD9
:1027200000204FF0E02290610720106100BF6BE0B5
:1027300003AB04AA08A909A8FEF718FF002854D083
:102740009DF82400082846D2DFE800F045040A146A
:102750001F2A45369DF82000FEF732FD04463CE076
:102760009DF82020BDF90C10BDF91000FEF7AEFC5D
:10277000044632E0BDF80C0081B29DF82020BDF97E
:102780001000FEF713FC044627E0BDF80C0081B2F0
:102790009DF82020BDF91000FEF71AFD04461CE04C
:1027A000BDF80C2091B2BDF8102090B29DF8202009
:1027B000FEF72AFC044610E001A902A8FEF764FB1C
:1027C000BDF90430BDF908209DF820109DF82400C3
:1027D000FEF74CFF18E0032400BF00BF22469DF81F
:1027E00020109DF82400FEF70BFF05AA06A907A8F4
:1027F000FEF784FB38B19DF814209DF818109DF861
:102800001C00FEF7FDFE00BF92E70000401901002A
:1028100018ED00E000E400E00146002901DA48423A
:1028200000E008467047000010B586B0044601215C
:1028300044F20400FEF780FF4FF40070ADF814007E
:1028400003208DF8160018208DF8170005A91D48E3
:10285000FDF7E4FE4FF48060ADF8140004208DF81D
:10286000170005A91748FDF7D9FE25208DF80000AF
:1028700000208DF8010003208DF8020001208DF862
:1028800003006846FEF7F4FC01940020ADF8080050
:10289000ADF80A00ADF80C00ADF810000C20ADF852
:1028A0000E0001A90848FFF765FE012240F22551FC
:1028B0000548FFF73AFE01210348FFF7F3FD06B094
:1028C00010BD0000000801400038014090EA010FEF
:1028D00048BF81F0004100F1A082421A3CBF801A3B
:1028E00089184FEAD0524FF07F4C1CEA410FA2EBFF
:1028F000D15318BF9CEA026F00F03B804FF0004CB0
:102900004CEA00204CEA012121FA03FC10EB0C0CEC
:102910001ED202F1FF325FEA1C2040EBC25038BFEA
:1029200070471CF07F0F4FEA400C18BFBCF17F4F7F
:1029300038BF7047C3F12003994008BF20F0010061
:10294000BCF17F4F38BF7047A0F1C04000F01DBA06
:102950004FEA3C00000A40EBC25028BF1CF0FF0FBA
:102960004FEA400CE6D018BFBCF17F4F38BF70472C
:10297000EAE79CEA026F05D010EA5C0F08BF00F09E
:102980000040704710B500F0BAF900BF64FBBE3ECE
:10299000401058BFC0F14040491058BFC1F14041FC
:1029A0008142EFF3008070474FF47F0C1CEAD01295
:1029B0001EBF1CEAD11392EA0C0F93EA0C0F00F031
:1029C000858090EA010F48BF42F4807240F4000C09
:1029D00041F400002CF07F4120F07F4000B581429F
:1029E000A2EB03020FF2081CACEB504EC0F100004A
:1029F0009EF800E04FEA4E0E00FB0EFC38BF490087
:102A00004FEA2C1C02F5FA020CFB0EF34FEACE1E25
:102A10004FEA112C4FEAC1210EEB635E42EB2242DA
:102A20000EFB0CFC4FEA1C5300FB03114FEA112C68
:102A30004FEA01310EFB0CFC4FEADC4C00FB0C11A1
:102A4000C14228BF09184CEB03335DF804EB10EBCF
:102A5000410143EBC250B2F57C0F38BF704729D516
:102A600012F0F00F1CBF00F1C04000F000407047B2
:102A7000008182838485868788898B8C8D8E8F9157
:102A80009293959697999A9C9D9FA0A2A3A5A7A87B
:102A9000AAACAEB0B2B3B5B7B9BCBEC0C2C5C7C9A7
:102AA000CCCED1D4D7D9DCDFE2E6E9ECF0F3F7FA0B
:102AB000FE0000004FEA400C0CF1807CBCF17E4F20
:102AC00028BF7047B0F1C04000F05FB990EA010F35
:102AD0000CEAD11348BF42F48072624538BF6345A7
:102AE00007D213F47F0F16D080EA010000F00040F7
:102AF000704710B500F003F9097EFC3E00F005B800
:102B000080EA010000F00040704780EA010000F018
:102B1000004000F03AB912F47F0F04BF024870473A
:102B200080EA010000F031B90000C07F41000B0EC7
:102B3000D3F19E0208D950F400034FEA032323FA8D
:102B400002F048BF4042704710B500F0D8F800BF0F
:102B500049922480002070476FF0004282EA2000F2
:102B60007047000010F0004148BF4042B0FA80F3C7
:102B700010FA03F2C3F19D030BD051EAC35101EBEC
:102B80001220530638BF704700F1010008BF20F043
:102B90000100704750EA010C00F113801CF5000F92
:102BA00058BFBCF5000F01D48842704707D710F515
:102BB000000F58BF11F5000F15D4884270478942A5
:102BC00070471CF5000F04D5BCF5000FF7D5814206
:102BD00070474FF0807C1CEB400F38BF1CEB410F5F
:102BE00001D28142704710B500F089F89224490063
:102BF0004FF000504FF08051FFF7CABE4FF47F0CEA
:102C00001CEAD0121EBF1CEAD11392EA0C0F93EA01
:102C10000C0F00F0478090EA010F48BF42F4807229
:102C20004FF0004C4CEA00204CEA012102EB030279
:102C3000A0FB0113A2F50002002918BF43F0010315
:102C40005B0028BF4FEA330342EB22425FEA132CBA
:102C50004CEBC2502EBFBCEB436FB2F57C0F7047FC
:102C60004FEA036CBCF1004F08BF20F00100B2F541
:102C70007C0F38BF70470BD582F0FF0212F5803F02
:102C8000C8BF704700F1C040D8BF00F00040704797
:102C900000F5000C5FEA4C0C48BF7047B0F1C04033
:102CA00000F073B890EA010F0CEAD11348BF42F468
:102CB0008072624538BF634504D280EA010000F0AB
:102CC0000040704710B500F01AF800BF8900013EBF
:102CD00000F007B800F009B85FEA410C5FEA1C6C2D
:102CE00008D080EA010000F050B85FEA400C5FEACB
:102CF0001C6CF6D14FF00040A0F5800070470EF13B
:102D0000020E2EF0030E5EF8044B244204D44FEA68
:102D10004102B2F17F4F11D84FEA4003B3F17F4F28
:102D20000CD80ED14FEAD07CB2F17F4F0CEB4C0C9B
:102D30000CF1020C08BF4CEBD17C04E04FF0080C06
:102D400001E04FEAD17C0CEB4C0324FA03F404F0CD
:102D50000704B4F1040C06D20EEB840CBDE810405D
:102D60004CF0010C6047DFE80CF0070802024FF05E
:102D70000040A0F5800010BD0846420018BFD2F107
:102D8000807288BF00F0004010BDFF2141EAD050A2
:102D9000C005704751EA000C00F113801CF5000FCC
:102DA00058BFBCF5000F01D48142704707D711F519
:102DB000000F58BF10F5000F15D4814270478942AB
:102DC00070471CF5000F04D5BCF5000FF7D58842FD
:102DD00070474FF0807C1CEB410F38BF1CEB400F5D
:102DE00001D28842704780EA010081EA000180EA4E
:102DF0000100FFF7F8BE80F0004090EA010F7FF578
:102E00006CAD81F0004100F008B8000090EA010FBD
:102E100048BF81F000413FF560AD421A04D882F00E
:102E20000042A0EB020011444FEAD0524FF07F4C19
:102E30001CEA410FA2EBD15318BF9CEA026F4AD0A3
:102E40004FF0004C4CEA00204CEA012121FA03FC2F
:102E5000B0EB0C0C0FD412F0FE0F36D05FEA4C0032
:102E60001DD5001240EBC25038BF70471CF03F0F19
:102E700018BF70470BE0A2F101025FEA1C2040EB93
:102E8000C25038BF70471CF07F0F18BF7047C3F1A6
:102E90002003994014BF401E20F0010070478008B5
:102EA0004FEA122308BF7047B0FA80FCA2EB0C0275
:102EB000CCF1280C60FA0CF093EA122F04BF00EB5F
:102EC000C25070474FEAC3707047130A5FEADC10C4
:102ED00008BF7047F6E79CEA026F04D010EA5C0F67
:102EE00008BF0020704710B5FFF709FF40DFF63E2E
:102EF00081F0004070470000182F000800000020FB
:102F0000780000006C010008902F00087800002075
:102F100070030000880100080000000000000000AD
:102F20000000010203040102030406070809020469
:102F30000608FF0000000000000000000000000084
:102F40000000000000000000000000000000000081
:102F50000000000000000000000000000000000071
:102F60000000000000000000000000000000000061
:102F70000000000000000000000000000000000051
:102F80000000000000000000000000000000000041
:04000005080001CF1F
:00000001FF
