:020000040800F2
:1000000000040020DF010008010E00087B09000841
:10001000FD0D00081D050008471E00080000000037
:100020000000000000000000000000004114000873
:10003000E906000800000000810E000849160008CB
:10004000FF010008FF010008FF010008FF01000890
:10005000FF010008FF010008FF010008FF01000880
:10006000FF010008FF010008FF010008FF01000870
:10007000FF010008FF010008FF010008FF01000860
:10008000FF010008FF010008FF010008FF01000850
:10009000FF010008FF010008FF010008FF01000840
:1000A000FF010008FF010008FF010008FF01000830
:1000B000FF010008FF010008FF010008FF01000820
:1000C000FF010008FF010008FF010008FF01000810
:1000D000FF010008591C0008FF010008FF0100088B
:1000E000FF010008FF010008FF010008FF010008F0
:1000F000FF010008FF010008FF010008FF010008E0
:10010000FF010008FF010008FF010008FF010008CF
:10011000FF010008FF010008FF010008FF010008BF
:10012000FF010008FF010008FF010008FF010008AF
:1001300000F002F800F042F80AA090E8000C8244B7
:100140008344AAF10107DA4501D100F037F8AFF294
:10015000090EBAE80F0013F0010F18BFFB1A43F0A5
:10016000010318479C230000BC230000103A24BF61
:1001700078C878C1FAD8520724BF30C830C144BF0C
:1001800004680C607047000000230024002500264E
:10019000103A28BF78C1FBD8520728BF30C148BFEA
:1001A0000B607047642900F0A980632900F0498141
:1001B000002070471FB51FBD10B510BD00F07CF9C1
:1001C0001146FFF7F7FF01F083FE00F09AF903B440
:1001D000FFF7F2FF03BC01F038FE000070470B4848
:1001E00080470B4981F308880A480047FEE7FEE78D
:1001F000FEE7FEE7FEE7FEE7FEE7FEE7FEE7FEE7D7
:1002000005480649044A064B70470000DD01000816
:10021000B802002031010008B8000020B802002018
:10022000B8000020704700000FB4044910B503AABD
:10023000029800F013F910BC5DF814FB00000020D8
:100240002DE9F0410E460446002020622046E16878
:10025000884730B3252805D0D4E901219047206A8A
:10026000401CF2E7E168204600278847050018D0C7
:10027000A5F14100192802D820354FF40067324615
:10028000294620462760FFF78DFF40B1012804D0A2
:10029000F61D26F007060836D8E7361DD6E72846AD
:1002A000DAE7206ABDE8F08170B50C460546012A00
:1002B00005D02878800600D5EA69002302E00123F2
:1002C00005E05B1C934202D2E05C0028F9D1A869EA
:1002D000E618C01AA861286A184428622846AFF3B5
:1002E000008004E0D5E9012114F8010B9047B442E5
:1002F000F8D32846AFF3008070BD00002DE9F0412F
:100300000646002410687529314616A510D0AFF3B3
:100310000080002802DA404213A507E031688A070E
:1003200001D512A502E0490704D511A5012401E079
:10033000AFF3008000210A2206F1240709E0B0FB98
:10034000F2FCB0FBF2F302FB1C003030785418468C
:10035000491C0028F3D123462A463046BDE8F04127
:1003600000F00CB8000000002D0000002B00000081
:100370002000000070477047704770472DE9F04734
:100380000D4699469246044600F124080168880605
:1003900004D5E06921F01001216000E00120A842AD
:1003A00001DD471B00E00027A1697A1902EB090073
:1003B000081AA0612078C00602D42046AFF300805E
:1003C000002608E0D4E901211AF806009047206AC7
:1003D000401C761C20624E45F4DB2078C0060AD50E
:1003E0002046AFF3008006E0D4E901213020904799
:1003F000206A401C2062381EA7F10107F4DC07E0E8
:10040000D4E9012118F805009047206A401C2062B9
:10041000281EA5F10105F3DC2046AFF3008020780B
:10042000000602D50220BDE8F0870120FBE710B5E9
:10043000436913B1AFF3008001E0FFF735FF0120FE
:1004400010BD127800F124010A7000224A700122C6
:10045000EDE711684FF0FF32E9E70000074B70B598
:100460000D467B4400F011F80446284600F020F8C1
:1004700010B14FF0FF3070BD204670BD4F1A000024
:1004800001694A1C02610878704700B58FB0CDE958
:1004900001310021059105497944CDE90310114648
:1004A0006846FFF7CDFE0FB000BD0000E5FFFFFF7F
:1004B000007B00F080007047754600F02BF8AE46D8
:1004C00005006946534620F00700854618B020B560
:1004D000FFF796FEBDE820404FF000064FF0000702
:1004E0004FF000084FF0000B21F00701AC46ACE8DC
:1004F000C009ACE8C009ACE8C009ACE8C0098D4649
:10050000704710B50446AFF300802046BDE81040A8
:10051000FFF75DBE004870475800002000BFFEE7AF
:100520002DE9FC5F05460E46144605B116B90020BC
:10053000BDE8FC9F2088684307B2608870430FFACB
:1005400080F8D4E90101A0EB0109484601F002FE60
:100550001249009001F04AFE8346A7EB080001F023
:10056000F9FD0F49009001F041FE5946019001F05C
:1005700067FD82460B49504601F004FF02D2DFF8C6
:1005800024A006E00849504601F0FCFD01D2DFF846
:1005900018A0504601F0C2FD00B2C9E70AD7233CBB
:1005A000CDCC4C3E00000C4200000CC210B50446FD
:1005B00041F61F425142204600F001F810BD0346AB
:1005C0008B4201DA08467047934201DD1046FAE794
:1005D0001846F8E72DE9F04104460D4616461F4639
:1005E0003B4632462946204600F09CFEBDE8F0819D
:1005F00070B505460C46284600F032FF204600F054
:1006000053FF70BD10B500210846FFF7F1FF10BD84
:1006100000B589B00121082000F044FC012104202C
:1006200000F030FC4FF4C040ADF8200010208DF8F1
:10063000230003208DF8220008A9294800F012F9B0
:10064000C020ADF8200018208DF8230003208DF87D
:10065000220008A9224800F005F905A801F0F2FAE5
:1006600041F61F40ADF818000920ADF81400002035
:10067000ADF81A00ADF8160005A91A4801F090FA75
:1006800001A801F054FA6020ADF804000120ADF893
:1006900006000020ADF80A00ADF80C0001A91148D1
:1006A00001F090F901A90F4801F0E2F908210D4885
:1006B00001F0D4F908210B4801F02CFA0121094876
:1006C00001F0E4F8FFF79EFF0121064801F0EAF887
:1006D00000F038F800F078F800F0B6F809B000BD86
:1006E000000C0140000800407047000001464EF633
:1006F000602001FB00F2024B92FBF3F07047000018
:10070000E02202003EB50446684601F051F900209F
:10071000ADF802000120ADF804000020ADF806009D
:100720000A20ADF808000020ADF800006946204618
:1007300001F0E8F80420ADF800006946204601F019
:10074000E1F83EBD1FB50121084600F09BFB0121E9
:10075000042000F0A7FB0320ADF8000004208DF872
:10076000030003208DF802006946164800F07AF86D
:1007700001A801F067FA0020ADF804004FF6FF7001
:10078000ADF808000020ADF80A00ADF8060001A998
:100790004FF0804001F004FA00231A4603214FF085
:1007A000804001F08BF84FF08040FFF7ABFF002155
:1007B0004FF0804001F0C5F90121880701F072F87F
:1007C0001FBD0000000801401FB50121022000F0FC
:1007D00059FB0121042000F065FBC020ADF80000AA
:1007E00004208DF8030003208DF8020069461448A8
:1007F00000F038F801A801F025FA0020ADF8040057
:100800004FF6FF70ADF808000020ADF80A00ADF813
:10081000060001A90B4801F0C3F900231A46032181
:10082000084801F04BF80748FFF76CFF0021054826
:1008300001F087F90121034801F034F81FBD0000E1
:10084000000801400004004010B500214FF0804036
:1008500001F077F90021024801F073F910BD0000A2
:10086000000400402DE9F04102460025002600204A
:1008700000230024002791F803C00CF00F0591F825
:1008800003C00CF0100CBCF1000F03D091F802C0B3
:100890004CEA050591F800C0BCF1000F31D0146896
:1008A00000202BE04FF0010C0CFA00F3B1F800C06F
:1008B0000CEA03069E4220D183004FF00F0C0CFA85
:1008C00003F7BC4305FA03FC4CEA040491F803C0A7
:1008D000BCF1280F06D14FF0010C0CFA00FCC2F855
:1008E00014C00AE091F803C0BCF1480F05D14FF0E5
:1008F000010C0CFA00FCC2F810C0401C0828D1D32F
:100900001460B1F800C0BCF1FF0F34DD5468002062
:100910002EE000F1080C4FF0010808FA0CF3B1F8D2
:1009200000C00CEA03069E4221D183004FF00F0C59
:100930000CFA03F7BC4305FA03FC4CEA040491F8F3
:1009400003C0BCF1280F05D100F1080C08FA0CF81F
:10095000C2F8148091F803C0BCF1480F07D100F130
:10096000080C4FF0010808FA0CF8C2F81080401C7F
:100970000828CED35460BDE8F08100BFFEE7000038
:1009800001464906084A926942F00102064B9A6103
:10099000064A526822F0E062044B5A601A465268D6
:1009A0000A435A60704700000010024000000140F6
:1009B00010B500F003F800F099F810BD10B501244F
:1009C0000DE000231A461946204600F0B1F9002335
:1009D0001A461946204600F0F9FB601CC4B2062CEA
:1009E000EFDD10BD70B5002419E0154800782044F3
:1009F000062190FBF1F201FB1200C5B205EB4500A8
:100A0000104E3044837805EB45003044427805EBC6
:100A10004500315C204600F04BF8601CC4B20C2C41
:100A2000E3DB00F063F806480078401C04490870D6
:100A300008460078062801DB0020087070BD000021
:100A400020000020E424000810B5002408E0164827
:100A5000017800231A46204600F02AF8601CC4B230
:100A60000C2CF4DB00F042F80F4800880F4909888D
:100A7000084400B20C4908800846B0F90000C828B4
:100A800006DBC82008806FF00900084908800AE0EA
:100A90000548B0F90000002805DC00200249088064
:100AA0000A200249088010BD2200002024000020F6
:100AB000F0B504460D4616461F460C2094FBF0F197
:100AC00000FB1140C4B2062C07DA611CC8B23B46D9
:100AD0003246294600F02CF907E0C4F10C01C8B2F7
:100AE0003B463246294600F071FBF0BD10B50620AA
:100AF00000F0B4F8062000F0FFFA10BD01202949EB
:100B0000086000BF00BF00BF00BF00BF00BF00BF44
:100B100000BF00BF00BF00BF00BF00BF00BF00BFDD
:100B200000BF00BF00BF00BF00BF00201E49C1F8CA
:100B3000B40100BF00BF00BF00BF00BF00BF00BFC7
:100B400000BF00BF00BF00BF00BF00BF00BF00BFAD
:100B500000BF00BF00BF00BF00BF00BF00BF00BF9D
:100B600000BF00BF00BF00BF00BF00BF00BF00BF8D
:100B700000BF00BF00BF00BF00BF00BF00BF00BF7D
:100B800000BF00BF00BF00BF00BF00BF00BF00BF6D
:100B900000BF00BF00BF00BF00BF00BF00BF00BF5D
:100BA00070470000B401224200002242012029497E
:100BB000086000BF00BF00BF00BF00BF00BF00BF94
:100BC00000BF00BF00BF00BF00BF00BF00BF00BF2D
:100BD00000BF00BF00BF00BF00BF00BF00BF00BF1D
:100BE00000BF00BF00BF00BF00BF00BF00BF00BF0D
:100BF00000BF00BF00BF00BF00BF00BF00BF00BFFD
:100C000000BF00BF00BF00BF00BF00BF00BF00BFEC
:100C100000BF00BF00BF00BF00BF00BF00BF00BFDC
:100C200000200D49C1F8B40100BF00BF00BF00BFE4
:100C300000BF00BF00BF00BF00BF00BF00BF00BFBC
:100C400000BF00BF00BF00BF00BF00BF00BF00BFAC
:100C500070470000B40122420000224270B50546F0
:100C6000002451E02C48005D00F0800010B9FFF72F
:100C700045FF01E0FFF79AFF2748005D00F04000C4
:100C800010B9FFF73BFF01E0FFF790FF2248005D3E
:100C900000F0200010B9FFF731FF01E0FFF786FFF9
:100CA0001D48005D00F0100010B9FFF727FF01E0BC
:100CB000FFF77CFF1848005D00F0080010B9FFF74F
:100CC0001DFF01E0FFF772FF1348005D00F0040014
:100CD00010B9FFF713FF01E0FFF768FF0E48005D52
:100CE00000F0020010B9FFF709FF01E0FFF75EFF17
:100CF0000948005D00F0010010B9FFF7FFFE01E0B8
:100D0000FFF754FF601CC4B205EB4500A042A9DC0C
:100D100000F004F870BD00002800002010B500208D
:100D200002490860422001F0B6F810BDB401224229
:100D300030B5441E04EB4404064D2A55441E04EB12
:100D40004404641C2955441E04EB4404A41C2B5584
:100D500030BD00002800002000B5002015490861C2
:100D6000C8601420486100208861C8610846006896
:100D700040F001000860084640680F4908400D49EE
:100D80004860084600680D4908400A49086008465E
:100D9000006820F4802008600846406820F4FE00C7
:100DA00048600020886000214FF0006000F01CF8CF
:100DB00000BD0000001002400000FFF8FFFFF6FE3B
:100DC0000146072323EA01021202054B18684FF679
:100DD000FF031840034B18431043014B1860704742
:100DE0000CED00E00000FA05024A0A400243024B03
:100DF0001A60704780FFFF1F08ED00E000BFFEE7AC
:100E00007047000070B5002100230F22C47804B39E
:100E1000154C246804F4E064C4F5E064210AC1F1CF
:100E20000403CA40447804FA03F18478144021434F
:100E300009010E4C0678A155047804F01F05012421
:100E4000AC4005786D11AD0005F1E025C5F8004115
:100E500009E0047804F01F050124AC40044D067835
:100E6000761145F8264070BD0CED00E000E400E08E
:100E700080E100E0014608B27047014608B27047C1
:100E80007047000029B1064AD2690243044BDA6177
:100E900004E0034AD2698243014BDA6170470000E3
:100EA0000010024029B1064A92690243044B9A613C
:100EB00004E0034A92698243014B9A617047000043
:100EC0000010024030B500210022002400232D4DE7
:100ED0006D6805F00C0121B1042905D0082923D142
:100EE00005E0294D056022E0274D05601FE0254DF6
:100EF0006D6805F47012234D6D6805F48034022589
:100F000005EB92421CB9214D554305600BE01D4D88
:100F10006D6805F400351DB11C4D5543056002E0B8
:100F2000194D5543056002E0174D056000BF00BF35
:100F3000144D6D6805F0F0010909154D6B5C0568ED
:100F4000DD4045600F4D6D6805F4E061090A104D04
:100F50006B5C4568DD4085600A4D6D6805F4605145
:100F6000C90A0B4D6B5C4568DD40C560054D6D6879
:100F700005F44041890B074D6B5CC568B5FBF3F583
:100F8000056130BD0010024000127A0000093D00EA
:100F9000060000201600002001202949086000BF3B
:100FA00000BF00BF00BF00BF00BF00BF00BF00BF49
:100FB00000BF00BF00BF00BF00BF00BF00BF00BF39
:100FC00000BF00BF00BF00201E49C1F8B80100BF2C
:100FD00000BF00BF00BF00BF00BF00BF00BF00BF19
:100FE00000BF00BF00BF00BF00BF00BF00BF00BF09
:100FF00000BF00BF00BF00BF00BF00BF00BF00BFF9
:1010000000BF00BF00BF00BF00BF00BF00BF00BFE8
:1010100000BF00BF00BF00BF00BF00BF00BF00BFD8
:1010200000BF00BF00BF00BF00BF00BF00BF00BFC8
:1010300000BF00BF00BF00BF00BF00BF704700007F
:10104000B80122420000224201202949086000BF65
:1010500000BF00BF00BF00BF00BF00BF00BF00BF98
:1010600000BF00BF00BF00BF00BF00BF00BF00BF88
:1010700000BF00BF00BF00BF00BF00BF00BF00BF78
:1010800000BF00BF00BF00BF00BF00BF00BF00BF68
:1010900000BF00BF00BF00BF00BF00BF00BF00BF58
:1010A00000BF00BF00BF00BF00BF00BF00BF00BF48
:1010B00000BF00BF00BF00BF00BF00BF00200D4940
:1010C000C1F8B80100BF00BF00BF00BF00BF00BF34
:1010D00000BF00BF00BF00BF00BF00BF00BF00BF18
:1010E00000BF00BF00BF00BF00BF00BF70470000CF
:1010F000B80122420000224270B50546002451E0AA
:101100002C48005D00F0800010B9FFF745FF01E0BA
:10111000FFF79AFF2748005D00F0400010B9FFF785
:101120003BFF01E0FFF790FF2248005D00F0200048
:1011300010B9FFF731FF01E0FFF786FF1D48005DA2
:1011400000F0100010B9FFF727FF01E0FFF77CFF68
:101150001848005D00F0080010B9FFF71DFF01E01E
:10116000FFF772FF1348005D00F0040010B9FFF7AD
:1011700013FF01E0FFF768FF0E48005D00F002007A
:1011800010B9FFF709FF01E0FFF75EFF0948005DB6
:1011900000F0010010B9FFF7FFFE01E0FFF754FF78
:1011A000601CC4B205EB4500A042A9DC00F004F8C5
:1011B00070BD00004000002010B50020024908600A
:1011C000422000F068FE10BDB801224230B5441E36
:1011D00004EB4404064D2A55441E04EB4404641CED
:1011E0002955441E04EB4404A41C2B5530BD0000BB
:1011F000400000202DE9F04705460E461446022027
:1012000000F026F80FFA80F94846FFF733FE2080F9
:10121000032000F01DF80FFA80F94846FFF72DFE75
:1012200060802088684307B2608870430FFA80F8B6
:1012300025B1002F02DD6068384460602EB1B8F13E
:10124000000F02DDA0684044A060BDE8F087000008
:1012500070B50446022C09D1400700F050FB05B2DE
:101260000021600700F06DFC284670BD032C09D1F9
:10127000054800F044FB05B20021034800F061FC82
:101280002846F2E70020F0E7000400402DE9F04F87
:1012900089B004460D4616461F46DDE912AB288884
:1012A00060430FFA80F8688860430FFA80F940467F
:1012B000FFF71CFA08904846FFF718FA079007FB5B
:1012C00004F106FB04F08DE8030F002C01DD46203D
:1012D00000E04220014604A0DDE90732FEF7A4FF4A
:1012E00009B0BDE8F08F000053504545442C2563FC
:1012F0002C4C3D25642C523D25642C4C543D2564DA
:101300002C52543D25642C4C433D25642C52433DC6
:1013100025642C4C503D25642C52503D25640D0A0B
:10132000000000002DE9FF4F8DB004460D469946A0
:10133000012C01D1012D08D0601C08B9681C20B116
:10134000FFF760F911B0BDE8F08F0020ADF818008C
:10135000ADF81A00079008908246002621460BA897
:1013600000F0C6F8294609A800F0C2F8FFF76CFAA9
:1013700059E006AA29462046FFF73CFF304600F018
:1013800060F8834606AA29462046FFF7C9F805906B
:101390000598ABEB000007B2059858440FFA80F8A7
:1013A000AF2228213846FFF70AF90746AF22282145
:1013B0004046FFF704F9804607FB04F007B208FB3C
:1013C00005F00FFA80F8BDF9182039460BA800F097
:1013D0009DF80490BDF91A20414609A800F096F83E
:1013E0000390DDE90310FFF703F9701C0A2190FB5D
:1013F000F1F201FB120048B9DDE9031043463A4619
:10140000CDE9000106A92046FFF740FFB9F1000F22
:1014100000D0C847322000F02FFD0AF132001FFA39
:1014200080FA701C86B20F988245A2DBFFF7EAF8BB
:10143000FFF7BEFA4FF4487000F01EFD00BF81E7D1
:10144000704701460A2908DA481C642250430A22E0
:1014500090FBF2F0283000B270478C20FCE70000CF
:1014600070B504462046FFF7A1F804462CB90020C9
:101470000B4908600B49088011E0002C05DD0020B5
:101480000749086007490C8009E0604285B20120E5
:101490000349086041F61F40401B0249088070BDA7
:1014A000B88121423808004070B504462046FFF755
:1014B0007DF804462CB900200B4908600B490880D0
:1014C00011E0002C05DD00200749086007490C8069
:1014D00009E0604285B201200349086041F61F40DF
:1014E000401B0249088070BDB4812142340800408D
:1014F00070B504460D460020606041F2680105FBAE
:1015000001F000F027FE206070BD00002DE9F05FC3
:1015100004460D46174625B9002020606060BDE8EE
:10152000F09FE81B00F016FE064631461E4800F00C
:101530005DFE82463046616800F056FF83461B49D7
:1015400000F054FE8146514600F07AFD8046414647
:10155000206800F075FD20601549206800F012FF3A
:1015600002D21348206006E01249206800F00AFE0B
:1015700001D210482060002D07DD0021206800F016
:1015800001FE02D20020206008E0002D06DA0021D2
:10159000206800F0F7FE01D200202060666020681D
:1015A00000F0BCFD00B2BAE7CDCC4C3F0000E040FB
:1015B00000F8E04500F8E0C530B504460025FFF727
:1015C000CBFB1F48006840F480301D49086000BF15
:1015D0001B480068400C0028FAD04FF4806018497E
:1015E0004860A01EC4B20846406840EA8440486093
:1015F0000846406840F4803048601248006840F077
:101600003200104908600E48006840F080700C49B4
:10161000086000BF0A480068400E0028FAD0084859
:10162000406840F002000649486005E00448406810
:10163000C0F3870505F00305022DF7D130BD00008A
:10164000001002400020024070470000F0B50C4638
:10165000154600220021068C4FF6FE773E40068498
:10166000028B018C4FF60C7632407E1C06EA031684
:101670002E433243104EB0420ED0104EB0420BD02B
:10168000B0F1804F08D00E4EB04205D00D4EB042A2
:1016900002D00D4EB04206D14FF6FD76314044F0F7
:1016A0000106314305E04FF6F576314044F001067E
:1016B000314302830184F0BD002C0140003401401D
:1016C0000004004000080040000C0040F0B50C464B
:1016D0001546002200210026078C4FF6EF7C07EA12
:1016E0000C070784028B018C4FF6FF7707EA04167C
:1016F00040F6FF473A404FF6FF7707EA03373A4391
:101700004FF6FF7707EA05273A43114FB8420ED04C
:10171000104FB8420BD0B0F1804F08D00E4FB842F6
:1017200005D00E4FB84202D00D4FB84206D14FF649
:10173000DF77394046F01007394305E04FF65F7711
:10174000394044F01007394302830184F0BD0000A2
:10175000002C01400034014000040040000800401B
:10176000000C0040F0B50C46154600220021002672
:10177000078C4FF6FF6C07EA0C070784828B018CFD
:101780004FF6FF7707EA04264FF60C773A404FF6FC
:10179000FF7707EA03172F433A43114FB8420ED0A1
:1017A000104FB8420BD0B0F1804F08D00E4FB84266
:1017B00005D00E4FB84202D00D4FB84206D14FF6B9
:1017C000FF57394046F48077394305E04FF2FF5721
:1017D000394044F48077394382830184F0BD0000AE
:1017E000002C01400034014000040040000800408B
:1017F000000C0040F0B50C461546002200210026E2
:10180000078C4EF6FF7C07EA0C070784828B018C5D
:101810004FF6FF7707EA043640F6FF473A404FF6A7
:10182000FF7707EA05273A434FF6FF7707EA0337C2
:101830003A43114FB8420ED0104FB8420BD0B0F11E
:10184000804F08D00E4FB84205D00E4FB84202D09C
:101850000D4FB84206D14DF6FF77394046F4805718
:10186000394305E047F6FF57394044F48057394380
:1018700082830184F0BD0000002C0140003401404F
:101880000004004000080040000C004021B1028824
:1018900042F08002028004E002884FF67F731A4013
:1018A0000280704721B1028842F00102028004E008
:1018B00002884FF6FE731A4002807047F0B50C465E
:1018C00015461E460021002200230189028B038C4D
:1018D0004FF6F877394021434FF6FC473A4040F243
:1018E00001173A434FF6DD773B404FF6FF7707EAA3
:1018F00006172F433B43018102830384F0BD014659
:10190000888C704770B505460C46244885420ED039
:10191000234885420BD0B5F1804F08D0214885423D
:1019200005D02148854202D02048854200D100E000
:1019300000BF208850B92389A28861882846FFF714
:1019400085FEE188284600F0FEF825E0208804287E
:101950000AD12389A28861882846FFF7B7FEE1886B
:10196000284600F0F9F817E0208808280AD12389D2
:10197000A28861882846FFF7F5FEE188284600F036
:10198000F8F809E02389A28861882846FFF732FF2A
:10199000E188284600F0F6F870BD0000002C0140F8
:1019A000003401400004004000080040000C0040EA
:1019B000002101804180012181800021C1800181BD
:1019C0007047000070B5002400220023058C4FF6FC
:1019D000FE7635400584028C8388048B4FF68F7524
:1019E0002C40B51E2C400D882C43751E2A400D89B5
:1019F0002A434D882A43144DA8420BD0134DA842C8
:101A000008D0134DA84205D0124DA84202D0124D65
:101A1000A84213D14FF6F7752A404D892A434FF655
:101A2000FB752A408D882A434FF6FF652B404FF601
:101A3000FF552B408D892B43CD892B438380048315
:101A4000CD888586028470BD002C014000340140A1
:101A50000040014000440140004801400A46002186
:101A6000018B4FF6F7731940114301837047000053
:101A700070B5002400220023058C4FF6EF76354028
:101A80000584028C8388048B48F6FF752C404FF642
:101A9000FF452C400D884FF6FF7606EA05252C43BE
:101AA0004FF6DF752A400D8906EA05152A434D8851
:101AB00006EA05152A43154DA84202D0144DA84246
:101AC0001DD14FF67F752A404D894FF6FF7606EA05
:101AD00005152A434FF6BF752A408D8806EA05157D
:101AE0002A434FF6FF352B404FF2FF752B408D896F
:101AF00006EA85052B43CD8906EA85052B438380BD
:101B00000483CD880587028470BD0000002C01404D
:101B1000003401400A460021018B4FF2FF73194047
:101B20004FF6FF7303EA0223194301837047002134
:101B3000018041808180C180018141818181C18199
:101B4000704781847047028B4FF6F3731A4002830B
:101B5000028B0A4302837047028B4FF2FF331A4015
:101B60000283028B4FF6FF7303EA01231A430283B9
:101B70007047828B4FF6F3731A408283828B0A433D
:101B800082837047828B4FF2FF331A408283828BAD
:101B90004FF6FF7303EA01231A4382837047000064
:101BA000002202881D4B98420ED01D4B98420BD04C
:101BB000B0F1804F08D01B4B984205D01A4B984289
:101BC00002D01A4B984204D14FF68F731A404B88BB
:101BD0001A43174B984207D0164B984204D04FF641
:101BE000FF431A40CB881A4302808B8883850B8879
:101BF00003850A4B98420BD0094B984208D00E4BF4
:101C0000984205D00D4B984202D00D4B984201D11D
:101C10000B7A03860123838270470000002C014069
:101C2000003401400004004000080040000C004067
:101C300000100040001400400040014000440140FA
:101C4000004801404FF6FF71818000210180C18072
:101C5000418001727047000010B540F225510A48DA
:101C600000F024F800B910BD074800F0DBF8C4B25A
:101C70000D2C01D00A2C00D1F5E704480470012096
:101C80000349087000BFEEE700380140040000205F
:101C90000500002021B1828942F40052828104E0D3
:101CA00082894DF6FF731A408281704770B50246F3
:101CB000002400230025002040F66A16B14200D11E
:101CC00000BFC1F3421501F01F03012606FA03F31A
:101CD000012D02D19689334006E0022D02D1168AE9
:101CE000334001E0968A33400C12012606FA04F4D0
:101CF0001688344013B10CB1012000E0002070BD03
:101D0000F0B50346002400260025002040F66A179F
:101D1000B94200D100BF1846C1F3421401F01F06BA
:101D2000012707FA06F5012C01D10C3004E0022C42
:101D300001D1103000E014301AB107682F4307605A
:101D400002E00768AF430760F0BD00002DE9F047EF
:101D500086B005460E460024A24600BFA1460027D5
:101D6000B08900B100BF2F462C8A4CF6FF700440AA
:101D7000F08804432C82AC894EF6F3100440B088FE
:101D800031890843718908430443AC81AC8A4FF61A
:101D9000FF400440B0890443AC8201A8FFF792F8E9
:101DA0001F48874202D1DDF810A001E0DDF80CA049
:101DB000A88900F4004040B10AEBCA0000EB0A1009
:101DC00031684900B0FBF1F807E00AEBCA0000EB0C
:101DD0000A1031688900B0FBF1F86420B8FBF0F01C
:101DE00004012009642101FB1089A88900F4004046
:101DF00040B1322000EBC900B0FBF1F000F0070069
:101E0000044308E0322000EB09106421B0FBF1F03C
:101E100000F00F0004432C8106B0BDE8F0870000FD
:101E20000038014001468888C0F3080070474FF42D
:101E30001651016000218180C18001810C21418106
:101E400000218181704700BFFEE7704708B501217E
:101E50001020FFF727F84FF4C040ADF80000102025
:101E60008DF8030003208DF8020069460148FEF753
:101E7000F9FC08BD0010014007E041F64B4100BFEE
:101E80000A1EA1F1010399B2FAD1021EA0F10103C9
:101E900098B2F2D1704706E0082100BF0A1EA1F1F6
:101EA000010399B2FAD1021EA0F1010398B2F3D155
:101EB0007047000000BF054A128802F04002002A65
:101EC000F9D0C2B2014B1B1D1A8070470038014087
:101ED0000920FFF771FB0220FEF772FF4FF4E1309B
:101EE00000F05AF80220FEF74BFD0120FEF748FDF6
:101EF000FEF78EFBFFF7AAFFFEF784FBFEF758FD07
:101F00000EA0FEF791F940F6B830FFF7B5FF14E0E8
:101F100013A0FEF789F9184B4FF4FA520121084635
:101F2000FEF758FB15A0FEF77FF91A4B4FF4FA5253
:101F30004FF0FF310846FEF74DFBE9E750494420DA
:101F4000666F72776172642F726576657273652051
:101F50006379636C652072656164790D0A00000025
:101F6000414354494F4E3A2050494420666F72779E
:101F70006172640D0A000000E509000841435449FC
:101F80004F4E3A2050494420726576657273650D54
:101F90000A000000490A000810B586B00446012175
:101FA00044F20400FEF77EFF4FF40070ADF8140019
:101FB00003208DF8160018208DF8170005A91E487B
:101FC000FEF750FC4FF48060ADF8140004208DF84B
:101FD000170005A91848FEF745FC25208DF80000DC
:101FE00003208DF801008DF8020001208DF8030018
:101FF0006846FEF707FF01A8FFF719FF01940020CC
:10200000ADF80800ADF80A00ADF80C00ADF810000E
:102010000C20ADF80E0001A90848FFF797FE012239
:1020200040F225510548FFF76BFE01210348FFF7F9
:1020300031FE06B010BD000000080140003801402C
:1020400090EA010F48BF81F0004100F1D481421AAB
:102050003CBF801A89184FEAD0524FF07F4C1CEADF
:10206000410FA2EBD15318BF9CEA026F00F03B80F6
:102070004FF0004C4CEA00204CEA012121FA03FC0D
:1020800010EB0C0C1ED202F1FF325FEA1C2040EB79
:10209000C25038BF70471CF07F0F4FEA400C18BF8A
:1020A000BCF17F4F38BF7047C3F12003994008BF90
:1020B00020F00100BCF17F4F38BF7047A0F1C04055
:1020C00000F05BB94FEA3C00000A40EBC25028BF69
:1020D0001CF0FF0F4FEA400CE6D018BFBCF17F4F59
:1020E00038BF7047EAE79CEA026F05D010EA5C0F40
:1020F00008BF00F00040704710B500F0F8F800BFCE
:1021000064FBBE3E401058BFC0F14040491058BF6C
:10211000C1F140418142EFF30080704741000B0E56
:10212000D3F19E0208D950F400034FEA032323FAA7
:1021300002F048BF4042704710B500F0D8F800BF29
:1021400049922480002070476FF0004282EA20000C
:102150007047000010F0004148BF4042B0FA80F3E1
:1021600010FA03F2C3F19D030BD051EAC35101EB06
:102170001220530638BF704700F1010008BF20F05D
:102180000100704750EA010C00F113801CF5000FAC
:1021900058BFBCF5000F01D48842704707D710F52F
:1021A000000F58BF11F5000F15D4884270478942BF
:1021B00070471CF5000F04D5BCF5000FF7D5814220
:1021C00070474FF0807C1CEB400F38BF1CEB410F79
:1021D00001D28142704710B500F089F8922449007D
:1021E0004FF000504FF08051FFF78CBF4FF47F0C41
:1021F0001CEAD0121EBF1CEAD11392EA0C0F93EA1C
:102200000C0F00F0478090EA010F48BF42F4807243
:102210004FF0004C4CEA00204CEA012102EB030293
:10222000A0FB0113A2F50002002918BF43F001032F
:102230005B0028BF4FEA330342EB22425FEA132CD4
:102240004CEBC2502EBFBCEB436FB2F57C0F704716
:102250004FEA036CBCF1004F08BF20F00100B2F55B
:102260007C0F38BF70470BD582F0FF0212F5803F1C
:10227000C8BF704700F1C040D8BF00F000407047B1
:1022800000F5000C5FEA4C0C48BF7047B0F1C0404D
:1022900000F073B890EA010F0CEAD11348BF42F482
:1022A0008072624538BF634504D280EA010000F0C5
:1022B0000040704710B500F01AF800BF8900013ED9
:1022C00000F007B800F009B85FEA410C5FEA1C6C47
:1022D00008D080EA010000F050B85FEA400C5FEAE5
:1022E0001C6CF6D14FF00040A0F5800070470EF155
:1022F000020E2EF0030E5EF8044B244204D44FEA83
:102300004102B2F17F4F11D84FEA4003B3F17F4F42
:102310000CD80ED14FEAD07CB2F17F4F0CEB4C0CB5
:102320000CF1020C08BF4CEBD17C04E04FF0080C20
:1023300001E04FEAD17C0CEB4C0324FA03F404F0E7
:102340000704B4F1040C06D20EEB840CBDE8104077
:102350004CF0010C6047DFE80CF0070802024FF078
:102360000040A0F5800010BD0846420018BFD2F121
:10237000807288BF00F0004010BDFF2141EAD050BC
:10238000C005704751EA000C00F113801CF5000FE6
:1023900058BFBCF5000F01D48142704707D711F533
:1023A000000F58BF10F5000F15D4814270478942C5
:1023B00070471CF5000F04D5BCF5000FF7D5884217
:1023C00070474FF0807C1CEB410F38BF1CEB400F77
:1023D00001D28842704780EA010081EA000180EA68
:1023E0000100FFF7F8BE000090EA010F48BF81F03E
:1023F00000413FF52CAE421A04D882F00042A0EB17
:10240000020011444FEAD0524FF07F4C1CEA410FBA
:10241000A2EBD15318BF9CEA026F4AD04FF0004C98
:102420004CEA00204CEA012121FA03FCB0EB0C0C31
:102430000FD412F0FE0F36D05FEA4C001DD500120B
:1024400040EBC25038BF70471CF03F0F18BF7047B9
:102450000BE0A2F101025FEA1C2040EBC25038BF42
:1024600070471CF07F0F18BF7047C3F120039940DD
:1024700014BF401E20F00100704780084FEA12236D
:1024800008BF7047B0FA80FCA2EB0C02CCF1280C1C
:1024900060FA0CF093EA122F04BF00EBC2507047B1
:1024A0004FEAC3707047130A5FEADC1008BF704739
:1024B000F6E79CEA026F04D010EA5C0F08BF002028
:1024C000704710B5FFF713FF40DFF63E81F0004084
:1024D0007047FF0000FFFF0000FF0000FFFF00004B
:1024E000FFFF00FFFF0000FFFF0000FF0000FFFFF5
:1024F0000000FFFF00FFFFA05A2D0FFFA05A2D0F75
:102500002025000800000020280000006C010008C1
:1025100048250008280000209002000088010008DB
:10252000000000000000000000000102030401029E
:102530000304060708090204060801010000000060
:08254000000000000A00000089
:04000005080001DF0F
:00000001FF
